{
  "address": "0x0165878A594ca255338adfa4d48449f69242Eb8F",
  "abi": [
    {
      "inputs": [],
      "stateMutability": "nonpayable",
      "type": "constructor"
    },
    {
      "anonymous": false,
      "inputs": [
        {
          "indexed": false,
          "internalType": "uint256",
          "name": "oldSummarizationFrequency",
          "type": "uint256"
        },
        {
          "indexed": false,
          "internalType": "uint256",
          "name": "newSummarizationFrequency",
          "type": "uint256"
        }
      ],
      "name": "BlockFrequencySummarizationChanged",
      "type": "event"
    },
    {
      "anonymous": false,
      "inputs": [
        {
          "indexed": true,
          "internalType": "address",
          "name": "oldOwner",
          "type": "address"
        },
        {
          "indexed": true,
          "internalType": "address",
          "name": "newOwner",
          "type": "address"
        }
      ],
      "name": "OwnerChanged",
      "type": "event"
    },
    {
      "anonymous": false,
      "inputs": [
        {
          "indexed": true,
          "internalType": "address",
          "name": "tokenA",
          "type": "address"
        },
        {
          "indexed": true,
          "internalType": "address",
          "name": "tokenB",
          "type": "address"
        },
        {
          "indexed": true,
          "internalType": "uint24",
          "name": "fee",
          "type": "uint24"
        },
        {
          "indexed": false,
          "internalType": "address",
          "name": "pool",
          "type": "address"
        },
        {
          "indexed": false,
          "internalType": "address",
          "name": "rebalancer",
          "type": "address"
        }
      ],
      "name": "RebalancerCreated",
      "type": "event"
    },
    {
      "anonymous": false,
      "inputs": [
        {
          "components": [
            {
              "internalType": "uint256",
              "name": "numerator",
              "type": "uint256"
            },
            {
              "internalType": "uint256",
              "name": "denominator",
              "type": "uint256"
            }
          ],
          "indexed": false,
          "internalType": "struct IRebalancerFactory.RebalancerFee",
          "name": "oldFee",
          "type": "tuple"
        },
        {
          "indexed": false,
          "internalType": "uint256",
          "name": "numeratorNew",
          "type": "uint256"
        },
        {
          "indexed": false,
          "internalType": "uint256",
          "name": "denominatorNew",
          "type": "uint256"
        }
      ],
      "name": "RebalancerFeeChanged",
      "type": "event"
    },
    {
      "anonymous": false,
      "inputs": [
        {
          "indexed": true,
          "internalType": "address",
          "name": "tokenA",
          "type": "address"
        },
        {
          "indexed": true,
          "internalType": "address",
          "name": "tokenB",
          "type": "address"
        },
        {
          "indexed": true,
          "internalType": "uint24",
          "name": "fee",
          "type": "uint24"
        },
        {
          "indexed": false,
          "internalType": "address",
          "name": "pool",
          "type": "address"
        },
        {
          "indexed": false,
          "internalType": "address",
          "name": "rebalancer",
          "type": "address"
        }
      ],
      "name": "RebalancerV2Created",
      "type": "event"
    },
    {
      "inputs": [
        {
          "internalType": "address",
          "name": "tokenA",
          "type": "address"
        },
        {
          "internalType": "address",
          "name": "tokenB",
          "type": "address"
        },
        {
          "internalType": "uint24",
          "name": "fee",
          "type": "uint24"
        }
      ],
      "name": "createRebalancer",
      "outputs": [
        {
          "internalType": "address",
          "name": "rebalancer",
          "type": "address"
        }
      ],
      "stateMutability": "nonpayable",
      "type": "function"
    },
    {
      "inputs": [
        {
          "internalType": "address",
          "name": "tokenA",
          "type": "address"
        },
        {
          "internalType": "address",
          "name": "tokenB",
          "type": "address"
        },
        {
          "internalType": "uint24",
          "name": "fee",
          "type": "uint24"
        },
        {
          "internalType": "address",
          "name": "nft",
          "type": "address"
        },
        {
          "internalType": "address",
          "name": "swapRouter",
          "type": "address"
        }
      ],
      "name": "createRebalancerV2",
      "outputs": [
        {
          "internalType": "address",
          "name": "rebalancer",
          "type": "address"
        }
      ],
      "stateMutability": "nonpayable",
      "type": "function"
    },
    {
      "inputs": [
        {
          "internalType": "address",
          "name": "",
          "type": "address"
        }
      ],
      "name": "getRebalancer",
      "outputs": [
        {
          "internalType": "address",
          "name": "",
          "type": "address"
        }
      ],
      "stateMutability": "view",
      "type": "function"
    },
    {
      "inputs": [
        {
          "internalType": "address",
          "name": "",
          "type": "address"
        }
      ],
      "name": "getRebalancerV2",
      "outputs": [
        {
          "internalType": "address",
          "name": "",
          "type": "address"
        }
      ],
      "stateMutability": "view",
      "type": "function"
    },
    {
      "inputs": [],
      "name": "owner",
      "outputs": [
        {
          "internalType": "address",
          "name": "",
          "type": "address"
        }
      ],
      "stateMutability": "view",
      "type": "function"
    },
    {
      "inputs": [],
      "name": "parameters",
      "outputs": [
        {
          "internalType": "address",
          "name": "factory",
          "type": "address"
        },
        {
          "internalType": "address",
          "name": "pool",
          "type": "address"
        }
      ],
      "stateMutability": "view",
      "type": "function"
    },
    {
      "inputs": [],
      "name": "quoter",
      "outputs": [
        {
          "internalType": "address",
          "name": "",
          "type": "address"
        }
      ],
      "stateMutability": "view",
      "type": "function"
    },
    {
      "inputs": [],
      "name": "rebalancerFee",
      "outputs": [
        {
          "internalType": "uint256",
          "name": "numerator",
          "type": "uint256"
        },
        {
          "internalType": "uint256",
          "name": "denominator",
          "type": "uint256"
        }
      ],
      "stateMutability": "view",
      "type": "function"
    },
    {
      "inputs": [
        {
          "internalType": "uint256",
          "name": "_summarizationFrequency",
          "type": "uint256"
        }
      ],
      "name": "setBlockFrequencySummarization",
      "outputs": [],
      "stateMutability": "nonpayable",
      "type": "function"
    },
    {
      "inputs": [
        {
          "internalType": "address",
          "name": "_owner",
          "type": "address"
        }
      ],
      "name": "setOwner",
      "outputs": [],
      "stateMutability": "nonpayable",
      "type": "function"
    },
    {
      "inputs": [
        {
          "internalType": "uint256",
          "name": "numerator",
          "type": "uint256"
        },
        {
          "internalType": "uint256",
          "name": "denominator",
          "type": "uint256"
        }
      ],
      "name": "setRebalanceFee",
      "outputs": [],
      "stateMutability": "nonpayable",
      "type": "function"
    },
    {
      "inputs": [
        {
          "internalType": "address",
          "name": "_addr",
          "type": "address"
        }
      ],
      "name": "setUniswapV3Factory",
      "outputs": [],
      "stateMutability": "nonpayable",
      "type": "function"
    },
    {
      "inputs": [
        {
          "internalType": "address",
          "name": "_addr",
          "type": "address"
        }
      ],
      "name": "setUniswapV3Quoter",
      "outputs": [],
      "stateMutability": "nonpayable",
      "type": "function"
    },
    {
      "inputs": [],
      "name": "summarizationFrequency",
      "outputs": [
        {
          "internalType": "uint256",
          "name": "",
          "type": "uint256"
        }
      ],
      "stateMutability": "view",
      "type": "function"
    },
    {
      "inputs": [],
      "name": "uniswapV3Factory",
      "outputs": [
        {
          "internalType": "contract IUniswapV3Factory",
          "name": "",
          "type": "address"
        }
      ],
      "stateMutability": "view",
      "type": "function"
    }
  ],
  "transactionHash": "0x9680f64e905590f66c7aa1a5bcf6684befa1ef564aa26bbb2dd0535a39d0ce95",
  "args": [],
  "solcInputHash": "b6704f1a76e9a1d9c4a3afac985bb4bb",
  "bytecode": "0x600280546001600160a01b031916731f98431c8ad98523631ae4a59f267346ea31f98417905560e0604052600060a081905260c0819052600381905560045561168060085534801561005057600080fd5b503060601b608052600980546001600160a01b031916339081179091556040516000907fb532073b38c83145e3e5135377a08bf9aab55bc0fd7c1179cd4fb995d2a5159c908290a360805160601c61afe96100b660003960006109f1015261afe96000f3fe60806040523480156200001157600080fd5b5060043610620001095760003560e01c80638903573011620000a3578063cec5926c116200006e578063cec5926c146200025b578063d19d40bd1462000274578063e2cfcfee1462000299578063f7960e4014620002b057600080fd5b80638903573014620001e05780638da5cb5b146200021c5780639776bc961462000230578063c6bbd5a7146200024757600080fd5b8063401e388311620000e4578063401e388314620001555780634b3484aa14620001895780635b54918214620001a05780636463e94c14620001b457600080fd5b80630f944b22146200010e57806313af40351462000127578063219248ab146200013e575b600080fd5b620001256200011f36600462000d49565b620002dc565b005b620001256200013836600462000c3a565b620003a6565b620001256200014f36600462000c3a565b6200042f565b6200016c6200016636600462000ccf565b6200047e565b6040516001600160a01b0390911681526020015b60405180910390f35b620001256200019a36600462000d63565b6200069e565b6002546200016c906001600160a01b031681565b6200016c620001c536600462000c3a565b6005602052600090815260409020546001600160a01b031681565b600054600154620001fb916001600160a01b03908116911682565b604080516001600160a01b0393841681529290911660208301520162000180565b6009546200016c906001600160a01b031681565b6200016c6200024136600462000c81565b6200077e565b6007546200016c906001600160a01b031681565b6200026560085481565b60405190815260200162000180565b60035460045462000283919082565b6040805192835260208301919091520162000180565b62000125620002aa36600462000c3a565b62000997565b6200016c620002c136600462000c3a565b6006602052600090815260409020546001600160a01b031681565b6009546001600160a01b03163314620003125760405162461bcd60e51b8152600401620003099062000d86565b60405180910390fd5b60085460408051918252602082018390527f92712b205503d05acd90de7b50dedf0600198f6231af17fb8dfee6ad74236a27910160405180910390a1612d518110620003a15760405162461bcd60e51b815260206004820152601e60248201527f52466163746f72793a206e656564206c657373207468616e2031313630310000604482015260640162000309565b600855565b6009546001600160a01b03163314620003d35760405162461bcd60e51b8152600401620003099062000d86565b6009546040516001600160a01b038084169216907fb532073b38c83145e3e5135377a08bf9aab55bc0fd7c1179cd4fb995d2a5159c90600090a3600980546001600160a01b0319166001600160a01b0392909216919091179055565b6009546001600160a01b031633146200045c5760405162461bcd60e51b8152600401620003099062000d86565b600780546001600160a01b0319166001600160a01b0392909216919091179055565b6009546000906001600160a01b03163314620004ae5760405162461bcd60e51b8152600401620003099062000d86565b620004b8620009e6565b600254604051630b4c774160e11b81526001600160a01b038881166004830152878116602483015262ffffff871660448301526000921690631698ee829060640160206040518083038186803b1580156200051257600080fd5b505afa15801562000527573d6000803e3d6000fd5b505050506040513d601f19601f820116820180604052508101906200054d919062000c61565b90506001600160a01b038116620005a75760405162461bcd60e51b815260206004820152601c60248201527f52466163746f72793a20706f6f6c20646f65736e277420657869737400000000604482015260640162000309565b6001600160a01b0381811660009081526006602052604090205416156200060c5760405162461bcd60e51b815260206004820152601860248201527714919858dd1bdc9e4e881490881a185cc8195e1a5cdd195960421b604482015260640162000309565b6200061d3082878a8a898962000a62565b6001600160a01b0382811660008181526006602090815260409182902080546001600160a01b03191686861690811790915582519384529083015292945062ffffff881692898316928b16917f6c15140167e1d05aa492ca7e0125d8dc1755fb743e5202b6c5fefc2b25aad831910160405180910390a45095945050505050565b6009546001600160a01b03163314620006cb5760405162461bcd60e51b8152600401620003099062000d86565b808210620007285760405162461bcd60e51b815260206004820152602360248201527f52466163746f72793a2052657175697265204e756d657261203c2064656e6f6d604482015262696e6160e81b606482015260840162000309565b6040805160035481526004546020820152908101839052606081018290527f6d5c96d9a68f42065e631a712e7ac0ec7df437c8c2f59f51e1b20835dfaa65f89060800160405180910390a1600391909155600455565b6009546000906001600160a01b03163314620007ae5760405162461bcd60e51b8152600401620003099062000d86565b620007b8620009e6565b600254604051630b4c774160e11b81526001600160a01b038681166004830152858116602483015262ffffff851660448301526000921690631698ee829060640160206040518083038186803b1580156200081257600080fd5b505afa15801562000827573d6000803e3d6000fd5b505050506040513d601f19601f820116820180604052508101906200084d919062000c61565b90506001600160a01b038116620008a75760405162461bcd60e51b815260206004820152601c60248201527f52466163746f72793a20706f6f6c20646f65736e277420657869737400000000604482015260640162000309565b6001600160a01b0381811660009081526005602052604090205416156200090c5760405162461bcd60e51b815260206004820152601860248201527714919858dd1bdc9e4e881490881a185cc8195e1a5cdd195960421b604482015260640162000309565b62000918308262000b51565b6001600160a01b0382811660008181526005602090815260409182902080546001600160a01b03191686861690811790915582519384529083015292945062ffffff861692878316928916917f82018bcbc24639ef4ffb9a0e6b0b0daa7640b710636d486d72c8033a36e65d57910160405180910390a4509392505050565b6009546001600160a01b03163314620009c45760405162461bcd60e51b8152600401620003099062000d86565b600280546001600160a01b0319166001600160a01b0392909216919091179055565b306001600160a01b037f0000000000000000000000000000000000000000000000000000000000000000161462000a605760405162461bcd60e51b815260206004820152601960248201527f446f206e6f7420616c6c6f772044656c656761746543616c6c00000000000000604482015260640162000309565b565b6040805180820182526001600160a01b038981168083529089166020928301819052600080546001600160a01b03199081169093178155600180549093168217909255835192830152910160405160208183030381529060405280519060200120868686868660405162000ad69062000c05565b62ffffff90951685526001600160a01b03938416602086015291831660408501528216606084015216608082015260a0018190604051809103906000f590508015801562000b28573d6000803e3d6000fd5b50600080546001600160a01b031990811690915560018054909116905598975050505050505050565b6040805180820182526001600160a01b038481168083529084166020928301819052600080546001600160a01b0319908116909317815560018054909316821790925583519283015291016040516020818303038152906040528051906020012060405162000bc09062000c13565b8190604051809103906000f590508015801562000be1573d6000803e3d6000fd5b50600080546001600160a01b03199081169091556001805490911690559392505050565b6142ce8062000dce83390190565b615f18806200509c83390190565b803562ffffff8116811462000c3557600080fd5b919050565b60006020828403121562000c4d57600080fd5b813562000c5a8162000db4565b9392505050565b60006020828403121562000c7457600080fd5b815162000c5a8162000db4565b60008060006060848603121562000c9757600080fd5b833562000ca48162000db4565b9250602084013562000cb68162000db4565b915062000cc66040850162000c21565b90509250925092565b600080600080600060a0868803121562000ce857600080fd5b853562000cf58162000db4565b9450602086013562000d078162000db4565b935062000d176040870162000c21565b9250606086013562000d298162000db4565b9150608086013562000d3b8162000db4565b809150509295509295909350565b60006020828403121562000d5c57600080fd5b5035919050565b6000806040838503121562000d7757600080fd5b50508035926020909101359150565b602080825260149082015273292330b1ba37b93c9d1027b7363c9037bbb732b960611b604082015260600190565b6001600160a01b038116811462000dca57600080fd5b5056fe610160604052600060a081905260c081905260e0819052610100819052610120819052610140819052600e819055600f80546001600160801b031916905560108190556011556012805465ffffffffffff191690553480156200006157600080fd5b50604051620042ce380380620042ce833981016040819052620000849162000335565b6040518060400160405280601381526020017f526562616c616e636572204c5020546f6b656e00000000000000000000000000815250604051806040016040528060038152602001620524c560ec1b8152508160039080519060200190620000ee9291906200023a565b508051620001049060049060208401906200023a565b5050506001600581905550600080336001600160a01b031663890357306040518163ffffffff1660e01b8152600401604080518083038186803b1580156200014b57600080fd5b505afa15801562000160573d6000803e3d6000fd5b505050506040513d601f19601f82011682018060405250810190620001869190620002fd565b6001600160601b031960609290921b91909116608052600a8054600680546001600160a01b039a8b166001600160a01b03199182161790915560078054998b16998216999099179098556000600881905560095562ffffff9990991691881663010000000262ffffff60ff60b81b0119166001600160c01b0319909916989098171790965550600b805492851692841683179055600c80548416909217909155600d805491909316911617905550620003eb565b8280546200024890620003ae565b90600052602060002090601f0160209004810192826200026c5760008555620002b7565b82601f106200028757805160ff1916838001178555620002b7565b82800160010185558215620002b7579182015b82811115620002b75782518255916020019190600101906200029a565b50620002c5929150620002c9565b5090565b5b80821115620002c55760008155600101620002ca565b80516001600160a01b0381168114620002f857600080fd5b919050565b600080604083850312156200031157600080fd5b6200031c83620002e0565b91506200032c60208401620002e0565b90509250929050565b600080600080600060a086880312156200034e57600080fd5b855162ffffff811681146200036257600080fd5b94506200037260208701620002e0565b93506200038260408701620002e0565b92506200039260608701620002e0565b9150620003a260808701620002e0565b90509295509295909350565b600181811c90821680620003c357607f821691505b60208210811415620003e557634e487b7160e01b600052602260045260246000fd5b50919050565b60805160601c613e936200043b6000396000818161066f01528181610baa01528181610e860152818161101b015281816111a201528181611286015281816119b301526121470152613e936000f3fe6080604052600436106102305760003560e01c80638b09578d1161012e578063c31c9c07116100ab578063ddca3f431161006f578063ddca3f43146106f7578063f178ad7a14610727578063f3fef3a314610747578063f55ebd2a1461077c578063f5c48474146107a357600080fd5b8063c31c9c0714610621578063c36596a614610641578063c45a01551461065d578063d21220a714610691578063dd62ed3e146106b157600080fd5b8063ac9650d8116100f2578063ac9650d814610589578063b0f285ee146105a9578063ba019dab146105c9578063bc694ea2146105de578063c040e6b8146105f357600080fd5b80638b09578d146104ff57806395d89b41146105145780639edabc2814610529578063a457c2d714610549578063a9059cbb1461056957600080fd5b8063350245c2116101bc5780634127365711610180578063412736571461045e57806350e0f5b71461047e57806370a0823114610494578063791b98bc146104ca5780637b48f1f5146104ea57600080fd5b8063350245c21461037957806335c4b49e146103f35780633950935114610409578063395696b9146104295780633dc119571461044957600080fd5b806312d1c3111161020357806312d1c311146102f657806318160ddd1461030d578063189d00ca1461032257806323b872dd14610337578063313ce5671461035757600080fd5b806306fdde0314610235578063095ea7b3146102605780630dfe1681146102905780630efe6a8b146102c8575b600080fd5b34801561024157600080fd5b5061024a6107c3565b6040516102579190613a17565b60405180910390f35b34801561026c57600080fd5b5061028061027b3660046135a2565b610855565b6040519015158152602001610257565b34801561029c57600080fd5b506006546102b0906001600160a01b031681565b6040516001600160a01b039091168152602001610257565b3480156102d457600080fd5b506102e86102e33660046135ce565b61086b565b604051908152602001610257565b34801561030257600080fd5b5061030b610ba8565b005b34801561031957600080fd5b506002546102e8565b34801561032e57600080fd5b506102e8610d80565b34801561034357600080fd5b50610280610352366004613561565b610d9a565b34801561036357600080fd5b5060125b60405160ff9091168152602001610257565b34801561038557600080fd5b50600e54600f546010546011546012546103b894936001600160801b0316929190600281810b9163010000009004900b86565b604080519687526001600160801b039095166020870152938501929092526060840152600290810b60808401520b60a082015260c001610257565b3480156103ff57600080fd5b506102e860095481565b34801561041557600080fd5b506102806104243660046135a2565b610e4d565b34801561043557600080fd5b5061030b61044436600461369a565b610e84565b34801561045557600080fd5b5061030b611019565b34801561046a57600080fd5b5061030b6104793660046134ee565b6111a0565b34801561048a57600080fd5b506102e860085481565b3480156104a057600080fd5b506102e86104af3660046134ee565b6001600160a01b031660009081526020819052604090205490565b3480156104d657600080fd5b50600c546102b0906001600160a01b031681565b3480156104f657600080fd5b5061030b611284565b34801561050b57600080fd5b50610367601281565b34801561052057600080fd5b5061024a61140e565b34801561053557600080fd5b506102e8610544366004613782565b61141d565b34801561055557600080fd5b506102806105643660046135a2565b611792565b34801561057557600080fd5b506102806105843660046135a2565b61182d565b61059c610597366004613603565b61183a565b604051610257919061398d565b3480156105b557600080fd5b50600b546102b0906001600160a01b031681565b3480156105d557600080fd5b506102e8600181565b3480156105ea57600080fd5b506102e8611992565b3480156105ff57600080fd5b50600a5461061490600160b81b900460ff1681565b60405161025791906139ef565b34801561062d57600080fd5b50600d546102b0906001600160a01b031681565b34801561064d57600080fd5b506102e8670de0b6b3a764000081565b34801561066957600080fd5b506102b07f000000000000000000000000000000000000000000000000000000000000000081565b34801561069d57600080fd5b506007546102b0906001600160a01b031681565b3480156106bd57600080fd5b506102e86106cc366004613528565b6001600160a01b03918216600090815260016020908152604080832093909416825291909152205490565b34801561070357600080fd5b50600a546107139062ffffff1681565b60405162ffffff9091168152602001610257565b34801561073357600080fd5b5061030b6107423660046134ee565b6119b1565b34801561075357600080fd5b506107676107623660046135a2565b611aa5565b60408051928352602083019190915201610257565b34801561078857600080fd5b50600a546102b090630100000090046001600160a01b031681565b3480156107af57600080fd5b506102e86107be3660046137cf565b611bcc565b6060600380546107d290613d8b565b80601f01602080910402602001604051908101604052809291908181526020018280546107fe90613d8b565b801561084b5780601f106108205761010080835404028352916020019161084b565b820191906000526020600020905b81548152906001019060200180831161082e57829003601f168201915b5050505050905090565b6000610862338484611f5a565b50600192915050565b6000600260055414156108c55760405162461bcd60e51b815260206004820152601f60248201527f5265656e7472616e637947756172643a207265656e7472616e742063616c6c0060448201526064015b60405180910390fd5b60026005556000600a54600160b81b900460ff1660018111156108ea576108ea613df7565b146109075760405162461bcd60e51b81526004016108bc90613b29565b60008311806109165750600082115b6109325760405162461bcd60e51b81526004016108bc90613a6c565b600654604051636eb1769f60e11b815233600482015230602482015284916001600160a01b03169063dd62ed3e9060440160206040518083038186803b15801561097b57600080fd5b505afa15801561098f573d6000803e3d6000fd5b505050506040513d601f19601f820116820180604052508101906109b391906137b6565b1015610a155760405162461bcd60e51b815260206004820152602b60248201527f526562616c616e6365723a20746f6b656e3020616c6c6f77616e6365203c207460448201526a1bdad95b8c105b5bdd5b9d60aa1b60648201526084016108bc565b600754604051636eb1769f60e11b815233600482015230602482015283916001600160a01b03169063dd62ed3e9060440160206040518083038186803b158015610a5e57600080fd5b505afa158015610a72573d6000803e3d6000fd5b505050506040513d601f19601f82011682018060405250810190610a9691906137b6565b1015610af85760405162461bcd60e51b815260206004820152602b60248201527f526562616c616e6365723a20746f6b656e3120616c6c6f77616e6365203c207460448201526a1bdad95b8c505b5bdd5b9d60aa1b60648201526084016108bc565b8215610b1657600654610b16906001600160a01b031633308661207f565b8115610b3457600754610b34906001600160a01b031633308561207f565b610b40600854846120f0565b600855600954610b5090836120f0565b6009819055600654600754600854600a54610b90946001600160a01b039485169493909316928892889290919062ffffff16610b8b60025490565b612142565b9050610b9c848261236e565b60016005559392505050565b7f00000000000000000000000000000000000000000000000000000000000000006001600160a01b0316638da5cb5b6040518163ffffffff1660e01b815260040160206040518083038186803b158015610c0157600080fd5b505afa158015610c15573d6000803e3d6000fd5b505050506040513d601f19601f82011682018060405250810190610c39919061350b565b6001600160a01b0316336001600160a01b031614610c695760405162461bcd60e51b81526004016108bc90613af2565b600654600d5460405163095ea7b360e01b81526001600160a01b039182166004820152600019602482015291169063095ea7b390604401602060405180830381600087803b158015610cba57600080fd5b505af1158015610cce573d6000803e3d6000fd5b505050506040513d601f19601f82011682018060405250810190610cf29190613678565b50600754600d5460405163095ea7b360e01b81526001600160a01b039182166004820152600019602482015291169063095ea7b3906044015b602060405180830381600087803b158015610d4557600080fd5b505af1158015610d59573d6000803e3d6000fd5b505050506040513d601f19601f82011682018060405250810190610d7d9190613678565b50565b610d976402540be400670de0b6b3a7640000613d07565b81565b6000610da784848461244d565b6001600160a01b038416600090815260016020908152604080832033845290915290205482811015610e2c5760405162461bcd60e51b815260206004820152602860248201527f45524332303a207472616e7366657220616d6f756e74206578636565647320616044820152676c6c6f77616e636560c01b60648201526084016108bc565b610e408533610e3b8685613d48565b611f5a565b60019150505b9392505050565b3360008181526001602090815260408083206001600160a01b03871684529091528120549091610862918590610e3b908690613cef565b7f00000000000000000000000000000000000000000000000000000000000000006001600160a01b0316638da5cb5b6040518163ffffffff1660e01b815260040160206040518083038186803b158015610edd57600080fd5b505afa158015610ef1573d6000803e3d6000fd5b505050506040513d601f19601f82011682018060405250810190610f15919061350b565b6001600160a01b0316336001600160a01b031614610f455760405162461bcd60e51b81526004016108bc90613af2565b6000600a54600160b81b900460ff166001811115610f6557610f65613df7565b14610f825760405162461bcd60e51b81526004016108bc90613b29565b60006008541180610f9557506000600954115b610ff45760405162461bcd60e51b815260206004820152602a60248201527f526562616c616e6365723a204e6f7420656e6f75676820616d6f756e7420746f60448201526920726562616c616e636560b01b60648201526084016108bc565b61100084848484612625565b5050600a805460ff60b81b1916600160b81b1790555050565b7f00000000000000000000000000000000000000000000000000000000000000006001600160a01b0316638da5cb5b6040518163ffffffff1660e01b815260040160206040518083038186803b15801561107257600080fd5b505afa158015611086573d6000803e3d6000fd5b505050506040513d601f19601f820116820180604052508101906110aa919061350b565b6001600160a01b0316336001600160a01b0316146110da5760405162461bcd60e51b81526004016108bc90613af2565b600654600c5460405163095ea7b360e01b81526001600160a01b039182166004820152600019602482015291169063095ea7b390604401602060405180830381600087803b15801561112b57600080fd5b505af115801561113f573d6000803e3d6000fd5b505050506040513d601f19601f820116820180604052508101906111639190613678565b50600754600c5460405163095ea7b360e01b81526001600160a01b039182166004820152600019602482015291169063095ea7b390604401610d2b565b7f00000000000000000000000000000000000000000000000000000000000000006001600160a01b0316638da5cb5b6040518163ffffffff1660e01b815260040160206040518083038186803b1580156111f957600080fd5b505afa15801561120d573d6000803e3d6000fd5b505050506040513d601f19601f82011682018060405250810190611231919061350b565b6001600160a01b0316336001600160a01b0316146112615760405162461bcd60e51b81526004016108bc90613af2565b600d80546001600160a01b0319166001600160a01b038316179055610d7d610ba8565b7f00000000000000000000000000000000000000000000000000000000000000006001600160a01b0316638da5cb5b6040518163ffffffff1660e01b815260040160206040518083038186803b1580156112dd57600080fd5b505afa1580156112f1573d6000803e3d6000fd5b505050506040513d601f19601f82011682018060405250810190611315919061350b565b6001600160a01b0316336001600160a01b0316146113455760405162461bcd60e51b81526004016108bc90613af2565b6001600a54600160b81b900460ff16600181111561136557611365613df7565b146113825760405162461bcd60e51b81526004016108bc90613a2a565b600e54600f546113a391906001600160801b031661139e612803565b612816565b6040805160c081018252600080825260208201819052918101829052606081018290526080810182905260a001819052600e819055600f80546001600160801b031916905560108190556011556012805465ffffffffffff19169055600a805460ff60b81b19169055565b6060600480546107d290613d8b565b600080600a54600160b81b900460ff16600181111561143e5761143e613df7565b1461145b5760405162461bcd60e51b81526004016108bc90613b29565b600061146a60208501856134ee565b6001600160a01b0316630dfe16816040518163ffffffff1660e01b815260040160206040518083038186803b1580156114a257600080fd5b505afa1580156114b6573d6000803e3d6000fd5b505050506040513d601f19601f820116820180604052508101906114da919061350b565b905060006114eb60208601866134ee565b6001600160a01b031663d21220a76040518163ffffffff1660e01b815260040160206040518083038186803b15801561152357600080fd5b505afa158015611537573d6000803e3d6000fd5b505050506040513d601f19601f8201168201806040525081019061155b919061350b565b6006549091506001600160a01b0383811691161461158b5760405162461bcd60e51b81526004016108bc90613abb565b6007546001600160a01b038281169116146115b85760405162461bcd60e51b81526004016108bc90613abb565b6115c560208601866134ee565b6001600160a01b03166323b872dd336115e160208901896134ee565b6040516001600160e01b031960e085901b1681526001600160a01b0392831660048201529116602482015260208801356044820152606401602060405180830381600087803b15801561163357600080fd5b505af1158015611647573d6000803e3d6000fd5b505050506040513d601f19601f8201168201806040525081019061166b9190613678565b5060008061167c60208801886134ee565b60405163226bf2d160e21b81523060048201526001600160a01b0391909116906389afcb44906024016040805180830381600087803b1580156116be57600080fd5b505af11580156116d2573d6000803e3d6000fd5b505050506040513d601f19601f820116820180604052508101906116f69190613830565b9150915060008211806117095750600081115b6117255760405162461bcd60e51b81526004016108bc90613a6c565b611731600854836120f0565b60085560095461174190826120f0565b6009819055600654600754600854600a5461177c946001600160a01b039485169493909316928792879290919062ffffff16610b8b60025490565b9450611788868661236e565b5050505092915050565b3360009081526001602090815260408083206001600160a01b0386168452909152812054828110156118145760405162461bcd60e51b815260206004820152602560248201527f45524332303a2064656372656173656420616c6c6f77616e63652062656c6f77604482015264207a65726f60d81b60648201526084016108bc565b6118233385610e3b8685613d48565b5060019392505050565b600061086233848461244d565b60608167ffffffffffffffff81111561185557611855613e23565b60405190808252806020026020018201604052801561188857816020015b60608152602001906001900390816118735790505b50905060005b8281101561198b57600080308686858181106118ac576118ac613e0d565b90506020028101906118be9190613ca8565b6040516118cc929190613961565b600060405180830381855af49150503d8060008114611907576040519150601f19603f3d011682016040523d82523d6000602084013e61190c565b606091505b5091509150816119585760448151101561192557600080fd5b6004810190508080602001905181019061193f91906136e0565b60405162461bcd60e51b81526004016108bc9190613a17565b8084848151811061196b5761196b613e0d565b60200260200101819052505050808061198390613dc6565b91505061188e565b5092915050565b60016119a7670de0b6b3a76400006002613d29565b610d979190613d48565b7f00000000000000000000000000000000000000000000000000000000000000006001600160a01b0316638da5cb5b6040518163ffffffff1660e01b815260040160206040518083038186803b158015611a0a57600080fd5b505afa158015611a1e573d6000803e3d6000fd5b505050506040513d601f19601f82011682018060405250810190611a42919061350b565b6001600160a01b0316336001600160a01b031614611a725760405162461bcd60e51b81526004016108bc90613af2565b600b80546001600160a01b0383166001600160a01b03199182168117909255600c80549091169091179055610d7d611019565b60008060026005541415611afb5760405162461bcd60e51b815260206004820152601f60248201527f5265656e7472616e637947756172643a207265656e7472616e742063616c6c0060448201526064016108bc565b60026005556000600a54600160b81b900460ff166001811115611b2057611b20613df7565b14611b3d5760405162461bcd60e51b81526004016108bc90613b29565b611b54611b4c846008546129ee565b600254612ad3565b9150611b65611b4c846009546129ee565b9050611b7360085483612beb565b600855600954611b839082612beb565b600955611b903384612c48565b600654611ba7906001600160a01b03168584612d97565b600754611bbe906001600160a01b03168583612d97565b600160055590939092509050565b600080600a54600160b81b900460ff166001811115611bed57611bed613df7565b14611c0a5760405162461bcd60e51b81526004016108bc90613b29565b600c5460405163133f757160e31b8152600481018590528491600091829182916001600160a01b03909116906399fbab88906024016101806040518083038186803b158015611c5857600080fd5b505afa158015611c6c573d6000803e3d6000fd5b505050506040513d601f19601f82011682018060405250810190611c909190613854565b505050509750505050945094505050600660009054906101000a90046001600160a01b03166001600160a01b0316836001600160a01b031614611ce55760405162461bcd60e51b81526004016108bc90613abb565b6007546001600160a01b03838116911614611d125760405162461bcd60e51b81526004016108bc90613abb565b600b546040516323b872dd60e01b8152336004820152306024820152604481018690526001600160a01b03909116906323b872dd90606401600060405180830381600087803b158015611d6457600080fd5b505af1158015611d78573d6000803e3d6000fd5b5050505060006040518060a00160405280898152602001836001600160801b031681526020016000815260200160008152602001611db4612803565b9052600c54604051630624e65f60e11b81529192506001600160a01b031690630c49ccbe90611de7908490600401613ba1565b6040805180830381600087803b158015611e0057600080fd5b505af1158015611e14573d6000803e3d6000fd5b505050506040513d601f19601f82011682018060405250810190611e389190613830565b5050604080516080810182528981523060208201526001600160801b038183018190526060820152600c54915163fc6f786560e01b8152909160009182916001600160a01b03169063fc6f786590611e94908690600401613b5e565b6040805180830381600087803b158015611ead57600080fd5b505af1158015611ec1573d6000803e3d6000fd5b505050506040513d601f19601f82011682018060405250810190611ee59190613830565b91509150611ef5600854836120f0565b600855600954611f0590826120f0565b6009819055600654600754600854600a54611f40946001600160a01b039485169493909316928792879290919062ffffff16610b8b60025490565b9850611f4c8a8a61236e565b505050505050505092915050565b6001600160a01b038316611fbc5760405162461bcd60e51b8152602060048201526024808201527f45524332303a20617070726f76652066726f6d20746865207a65726f206164646044820152637265737360e01b60648201526084016108bc565b6001600160a01b03821661201d5760405162461bcd60e51b815260206004820152602260248201527f45524332303a20617070726f766520746f20746865207a65726f206164647265604482015261737360f01b60648201526084016108bc565b6001600160a01b0383811660008181526001602090815260408083209487168084529482529182902085905590518481527f8c5be1e5ebec7d5bd14f71427d1e84f3dd0314c0f7b2291e5b200ac8c7c3b92591015b60405180910390a3505050565b6040516001600160a01b03808516602483015283166044820152606481018290526120ea9085906323b872dd60e01b906084015b60408051601f198184030181529190526020810180516001600160e01b03166001600160e01b031990931692909217909152612dcc565b50505050565b6000806120fd8385613cef565b905083811015610e465760405162461bcd60e51b815260206004820152601060248201526f4552525f4144445f4f564552464c4f5760801b60448201526064016108bc565b6000807f00000000000000000000000000000000000000000000000000000000000000006001600160a01b031663c6bbd5a76040518163ffffffff1660e01b815260040160206040518083038186803b15801561219e57600080fd5b505afa1580156121b2573d6000803e3d6000fd5b505050506040513d601f19601f820116820180604052508101906121d6919061350b565b60405163f7729d4360e01b81526001600160a01b038b811660048301528c8116602483015262ffffff871660448301526064820188905260006084830181905292935083169063f7729d439060a401602060405180830381600087803b15801561223f57600080fd5b505af1158015612253573d6000803e3d6000fd5b505050506040513d601f19601f8201168201806040525081019061227791906137b6565b60405163f7729d4360e01b81526001600160a01b038c811660048301528d8116602483015262ffffff88166044830152606482018b905260006084830181905292935084169063f7729d439060a401602060405180830381600087803b1580156122e057600080fd5b505af11580156122f4573d6000803e3d6000fd5b505050506040513d601f19601f8201168201806040525081019061231891906137b6565b9050600061232689846120f0565b905060006123348c846120f0565b9050866123475794506123629350505050565b61235a61235488836129ee565b83612ad3565b955050505050505b98975050505050505050565b6001600160a01b0382166123c45760405162461bcd60e51b815260206004820152601f60248201527f45524332303a206d696e7420746f20746865207a65726f20616464726573730060448201526064016108bc565b80600260008282546123d69190613cef565b90915550506001600160a01b03821660009081526020819052604081208054839290612403908490613cef565b90915550506040518181526001600160a01b038316906000907fddf252ad1be2c89b69c2b068fc378daa952ba7f163c4a11628f55a4df523b3ef9060200160405180910390a35050565b6001600160a01b0383166124b15760405162461bcd60e51b815260206004820152602560248201527f45524332303a207472616e736665722066726f6d20746865207a65726f206164604482015264647265737360d81b60648201526084016108bc565b6001600160a01b0382166125135760405162461bcd60e51b815260206004820152602360248201527f45524332303a207472616e7366657220746f20746865207a65726f206164647260448201526265737360e81b60648201526084016108bc565b6001600160a01b0383166000908152602081905260409020548181101561258b5760405162461bcd60e51b815260206004820152602660248201527f45524332303a207472616e7366657220616d6f756e7420657863656564732062604482015265616c616e636560d01b60648201526084016108bc565b6125958282613d48565b6001600160a01b0380861660009081526020819052604080822093909355908516815290812080548492906125cb908490613cef565b92505081905550826001600160a01b0316846001600160a01b03167fddf252ad1be2c89b69c2b068fc378daa952ba7f163c4a11628f55a4df523b3ef8460405161261791815260200190565b60405180910390a350505050565b61262f8282612e9e565b600c5460408051610160810182526006546001600160a01b03908116825260075481166020830152600a5462ffffff1692820192909252600287810b606083015286900b608082015260085460a082015260095460c0820152600060e0820181905261010082018190523061012083015292839283928392919091169063883164569061014081016126bf612803565b8152506040518263ffffffff1660e01b81526004016126de9190613be4565b608060405180830381600087803b1580156126f857600080fd5b505af115801561270c573d6000803e3d6000fd5b505050506040513d601f19601f8201168201806040525081019061273091906137f4565b9350935093509350816008600082825461274a9190613d48565b9250508190555080600960008282546127639190613d48565b90915550506040805160c0810182528581526001600160801b039094166020850181905290840183905260608401829052600298890b6080850181905297890b60a0909401849052600e94909455600f80546001600160801b0319169094179093556010556011919091556012805491860b62ffffff90811663010000000265ffffffffffff199093169590960b90951693909317929092179092555050565b600061281142610708613cef565b905090565b6001600a54600160b81b900460ff16600181111561283657612836613df7565b146128535760405162461bcd60e51b81526004016108bc90613a2a565b6040805160a0810182528481526001600160801b03841660208201526000818301819052606082015260808101839052600c549151630624e65f60e11b815283926001600160a01b031690630c49ccbe906128b2908490600401613ba1565b6040805180830381600087803b1580156128cb57600080fd5b505af11580156128df573d6000803e3d6000fd5b505050506040513d601f19601f820116820180604052508101906129039190613830565b5050604080516080810182528681523060208201526001600160801b038183018190526060820152600c54915163fc6f786560e01b8152909160009182916001600160a01b03169063fc6f78659061295f908690600401613b5e565b6040805180830381600087803b15801561297857600080fd5b505af115801561298c573d6000803e3d6000fd5b505050506040513d601f19601f820116820180604052508101906129b09190613830565b9150915081600860008282546129c69190613cef565b9250508190555080600960008282546129df9190613cef565b90915550505050505050505050565b6000806129fb8385613d29565b9050831580612a12575082612a108583613d07565b145b612a515760405162461bcd60e51b815260206004820152601060248201526f4552525f4d554c5f4f564552464c4f5760801b60448201526064016108bc565b6000612a666002670de0b6b3a7640000613d07565b612a709083613cef565b905081811015612ab55760405162461bcd60e51b815260206004820152601060248201526f4552525f4d554c5f4f564552464c4f5760801b60448201526064016108bc565b6000612ac9670de0b6b3a764000083613d07565b9695505050505050565b600081612b115760405162461bcd60e51b815260206004820152600c60248201526b4552525f4449565f5a45524f60a01b60448201526064016108bc565b6000612b25670de0b6b3a764000085613d29565b9050831580612b445750670de0b6b3a7640000612b428583613d07565b145b612b835760405162461bcd60e51b815260206004820152601060248201526f11549497d1125597d25395115493905360821b60448201526064016108bc565b6000612b90600285613d07565b612b9a9083613cef565b905081811015612bdf5760405162461bcd60e51b815260206004820152601060248201526f11549497d1125597d25395115493905360821b60448201526064016108bc565b6000612ac98583613d07565b6000806000612bfa8585613010565b915091508015612c405760405162461bcd60e51b81526020600482015260116024820152704552525f5355425f554e444552464c4f5760781b60448201526064016108bc565b509392505050565b6001600160a01b038216612ca85760405162461bcd60e51b815260206004820152602160248201527f45524332303a206275726e2066726f6d20746865207a65726f206164647265736044820152607360f81b60648201526084016108bc565b6001600160a01b03821660009081526020819052604090205481811015612d1c5760405162461bcd60e51b815260206004820152602260248201527f45524332303a206275726e20616d6f756e7420657863656564732062616c616e604482015261636560f01b60648201526084016108bc565b612d268282613d48565b6001600160a01b03841660009081526020819052604081209190915560028054849290612d54908490613d48565b90915550506040518281526000906001600160a01b038516907fddf252ad1be2c89b69c2b068fc378daa952ba7f163c4a11628f55a4df523b3ef90602001612072565b6040516001600160a01b038316602482015260448101829052612dc790849063a9059cbb60e01b906064016120b3565b505050565b6000612e21826040518060400160405280602081526020017f5361666545524332303a206c6f772d6c6576656c2063616c6c206661696c6564815250856001600160a01b03166130479092919063ffffffff16565b805190915015612dc75780806020019051810190612e3f9190613678565b612dc75760405162461bcd60e51b815260206004820152602a60248201527f5361666545524332303a204552433230206f7065726174696f6e20646964206e6044820152691bdd081cdd58d8d9595960b21b60648201526084016108bc565b612ea88183613cef565b606414612f015760405162461bcd60e51b815260206004820152602160248201527f526562616c616e6365723a20746f6b656e53686172652073756d20213d2031306044820152600360fc1b60648201526084016108bc565b60006009546008541115612f9257600854600754600654600954612f3d9392612f38926001600160a01b039182169291169061305e565b6120f0565b60088190556000600955612f53908360646131a1565b600954600654600754929350612f7a92612f38916001600160a01b0390811691168561305e565b600955600854612f8a9082612beb565b600855505050565b600954600654600754600854612fbb9392612f38926001600160a01b039182169291169061305e565b60098190556000600855612fd1908460646131a1565b600854600754600654929350612ff892612f38916001600160a01b0390811691168561305e565b6008556009546130089082612beb565b600955505050565b60008082841061302f576130248385613d48565b600091509150613040565b6130398484613d48565b6001915091505b9250929050565b606061305684846000856131c3565b949350505050565b60008161306d57506000610e46565b600d5460408051610100810182526001600160a01b0387811682528681166020830152600a5462ffffff169282019290925230606082015291169063414bf38990608081016130ba612803565b8152602080820187905260006040808401829052606093840191909152805160e086811b6001600160e01b031916825285516001600160a01b03908116600484015293860151841660248301529185015162ffffff16604482015292840151821660648401526080840151608484015260a084015160a484015260c084015160c4840152929092015190911660e482015261010401602060405180830381600087803b15801561316957600080fd5b505af115801561317d573d6000803e3d6000fd5b505050506040513d601f19601f8201168201806040525081019061305691906137b6565b600081156131b9576131b48484846132eb565b613056565b5060009392505050565b6060824710156132245760405162461bcd60e51b815260206004820152602660248201527f416464726573733a20696e73756666696369656e742062616c616e636520666f6044820152651c8818d85b1b60d21b60648201526084016108bc565b843b6132725760405162461bcd60e51b815260206004820152601d60248201527f416464726573733a2063616c6c20746f206e6f6e2d636f6e747261637400000060448201526064016108bc565b600080866001600160a01b0316858760405161328e9190613971565b60006040518083038185875af1925050503d80600081146132cb576040519150601f19603f3d011682016040523d82523d6000602084013e6132d0565b606091505b50915091506132e0828286613470565b979650505050505050565b600080806000198587098587029250828110838203039150508060001415613325576000841161331a57600080fd5b508290049050610e46565b80841161333157600080fd5b60008486880980840393811190920391905060008561335281600019613d48565b61335d906001613cef565b1695869004959384900493600081900304600101905061337d8184613d29565b90931792600061338e876003613d29565b600218905061339d8188613d29565b6133a8906002613d48565b6133b29082613d29565b90506133be8188613d29565b6133c9906002613d48565b6133d39082613d29565b90506133df8188613d29565b6133ea906002613d48565b6133f49082613d29565b90506134008188613d29565b61340b906002613d48565b6134159082613d29565b90506134218188613d29565b61342c906002613d48565b6134369082613d29565b90506134428188613d29565b61344d906002613d48565b6134579082613d29565b90506134638186613d29565b9998505050505050505050565b6060831561347f575081610e46565b82511561348f5782518084602001fd5b8160405162461bcd60e51b81526004016108bc9190613a17565b80516134b481613e39565b919050565b80516134b481613e4e565b80516001600160801b03811681146134b457600080fd5b805162ffffff811681146134b457600080fd5b60006020828403121561350057600080fd5b8135610e4681613e39565b60006020828403121561351d57600080fd5b8151610e4681613e39565b6000806040838503121561353b57600080fd5b823561354681613e39565b9150602083013561355681613e39565b809150509250929050565b60008060006060848603121561357657600080fd5b833561358181613e39565b9250602084013561359181613e39565b929592945050506040919091013590565b600080604083850312156135b557600080fd5b82356135c081613e39565b946020939093013593505050565b6000806000606084860312156135e357600080fd5b83356135ee81613e39565b95602085013595506040909401359392505050565b6000806020838503121561361657600080fd5b823567ffffffffffffffff8082111561362e57600080fd5b818501915085601f83011261364257600080fd5b81358181111561365157600080fd5b8660208260051b850101111561366657600080fd5b60209290920196919550909350505050565b60006020828403121561368a57600080fd5b81518015158114610e4657600080fd5b600080600080608085870312156136b057600080fd5b84356136bb81613e4e565b935060208501356136cb81613e4e565b93969395505050506040820135916060013590565b6000602082840312156136f257600080fd5b815167ffffffffffffffff8082111561370a57600080fd5b818401915084601f83011261371e57600080fd5b81518181111561373057613730613e23565b604051601f8201601f19908116603f0116810190838211818310171561375857613758613e23565b8160405282815287602084870101111561377157600080fd5b6132e0836020830160208801613d5f565b600080828403606081121561379657600080fd5b60408112156137a457600080fd5b50829150604083013561355681613e39565b6000602082840312156137c857600080fd5b5051919050565b600080604083850312156137e257600080fd5b82359150602083013561355681613e39565b6000806000806080858703121561380a57600080fd5b8451935061381a602086016134c4565b6040860151606090960151949790965092505050565b6000806040838503121561384357600080fd5b505080516020909101519092909150565b6000806000806000806000806000806000806101808d8f03121561387757600080fd5b8c516bffffffffffffffffffffffff8116811461389357600080fd5b9b506138a160208e016134a9565b9a506138af60408e016134a9565b99506138bd60608e016134a9565b98506138cb60808e016134db565b97506138d960a08e016134b9565b96506138e760c08e016134b9565b95506138f560e08e016134c4565b94506101008d015193506101208d015192506139146101408e016134c4565b91506139236101608e016134c4565b90509295989b509295989b509295989b565b6000815180845261394d816020860160208601613d5f565b601f01601f19169290920160200192915050565b8183823760009101908152919050565b60008251613983818460208701613d5f565b9190910192915050565b6000602080830181845280855180835260408601915060408160051b870101925083870160005b828110156139e257603f198886030184526139d0858351613935565b945092850192908501906001016139b4565b5092979650505050505050565b6020810160028310613a1157634e487b7160e01b600052602160045260246000fd5b91905290565b602081526000610e466020830184613935565b60208082526022908201527f526562616c616e6365723a204e6f7420696e207374616765204445504f534954604082015261115160f21b606082015260800190565b6020808252602f908201527f526562616c616e6365723a20456974686572206f6620746f6b656e20616d6f7560408201526e06e7473206d757374206265203e203608c1b606082015260800190565b60208082526018908201527f526562616c616e6365723a20496e76616c696420706169720000000000000000604082015260600190565b6020808252601e908201527f526562616c616e6365723a204f6e6c7920466163746f7279204f776e65720000604082015260600190565b6020808252818101527f526562616c616e6365723a204e6f7420696e20737461676520484f4c44494e47604082015260600190565b815181526020808301516001600160a01b0316908201526040808301516001600160801b0390811691830191909152606092830151169181019190915260800190565b600060a082019050825182526001600160801b03602084015116602083015260408301516040830152606083015160608301526080830151608083015292915050565b81516001600160a01b0316815261016081016020830151613c1060208401826001600160a01b03169052565b506040830151613c27604084018262ffffff169052565b506060830151613c3c606084018260020b9052565b506080830151613c51608084018260020b9052565b5060a083015160a083015260c083015160c083015260e083015160e083015261010080840151818401525061012080840151613c97828501826001600160a01b03169052565b505061014092830151919092015290565b6000808335601e19843603018112613cbf57600080fd5b83018035915067ffffffffffffffff821115613cda57600080fd5b60200191503681900382131561304057600080fd5b60008219821115613d0257613d02613de1565b500190565b600082613d2457634e487b7160e01b600052601260045260246000fd5b500490565b6000816000190483118215151615613d4357613d43613de1565b500290565b600082821015613d5a57613d5a613de1565b500390565b60005b83811015613d7a578181015183820152602001613d62565b838111156120ea5750506000910152565b600181811c90821680613d9f57607f821691505b60208210811415613dc057634e487b7160e01b600052602260045260246000fd5b50919050565b6000600019821415613dda57613dda613de1565b5060010190565b634e487b7160e01b600052601160045260246000fd5b634e487b7160e01b600052602160045260246000fd5b634e487b7160e01b600052603260045260246000fd5b634e487b7160e01b600052604160045260246000fd5b6001600160a01b0381168114610d7d57600080fd5b8060020b8114610d7d57600080fdfea2646970667358221220a392b31c510a9c87ada083b0ab0caf0359e01ca29448c77b7be2e898417ac4bb64736f6c63430008060033600180546001600160a01b031990811673c36442b4a4522e871399cd717abdd847ab11fe889081179092556002805482169092179091556003805490911673e592427a0aece92de3edee1f18e0157c05861564179055600061010081905261012081905260048190556005819055610140819052610160819052600681905560078190556101808190526101a08190526101c08190526101e08190526102008190526102208190526008819055600980546001600160801b0319169055600a819055600b819055600c805465ffffffffffff191690556102408190526102608190526102808190526103608181526103808290526102a0526103a08181526103c08290526102c0526102e08190526103008190526103e08181526104008290526103205261046060405261042081815261044082905261034052600d819055600e819055600f80546001600160401b0319169055601081905560118190556012819055601381905560148190556015805460ff191690556016819055601781905560188190556019553480156200019557600080fd5b506001600081905550600080336001600160a01b031663890357306040518163ffffffff1660e01b8152600401604080518083038186803b158015620001da57600080fd5b505afa158015620001ef573d6000803e3d6000fd5b505050506040513d601f19601f82011682018060405250810190620002159190620003a0565b6001600160601b0319606083811b821660805282901b1660a05260408051630dfe168160e01b8152905192945090925082916001600160a01b03831691630dfe1681916004808301926020929190829003018186803b1580156200027857600080fd5b505afa1580156200028d573d6000803e3d6000fd5b505050506040513d601f19601f82011682018060405250810190620002b391906200037b565b6001600160a01b031660c0816001600160a01b031660601b81525050806001600160a01b031663d21220a76040518163ffffffff1660e01b815260040160206040518083038186803b1580156200030957600080fd5b505afa1580156200031e573d6000803e3d6000fd5b505050506040513d601f19601f820116820180604052508101906200034491906200037b565b60601b6001600160601b03191660e05250620003d8915050565b80516001600160a01b03811681146200037657600080fd5b919050565b6000602082840312156200038e57600080fd5b62000399826200035e565b9392505050565b60008060408385031215620003b457600080fd5b620003bf836200035e565b9150620003cf602084016200035e565b90509250929050565b60805160601c60a05160601c60c05160601c60e05160601c615980620005986000396000818161055e0152818161087101528181610a5301528181610eb9015281816115ac01528181611a9f01528181611bbd01528181611e940152818161207601528181612eb9015281816131ab015281816136df01528181613e9e015281816144fb015281816145990152818161461b01526146770152600081816101ce0152818161082001528181610a3201528181610e1301528181611567015281816119b201528181611b8201528181611e430152818161205501528181612dc3015281816130b60152818161360b01528181613e600152818161451c01528181614578015281816145fa01526146980152600081816102ae01528181613a7601528181613b1101528181613bba01528181613c5901528181613cf601528181613d9d01528181613f0001528181613f9f0152818161403e015261488f01526000818161050c0152818161063901528181610ad501528181610c85015281816120a5015281816121f401528181612c7801528181612d2a01528181612e200152818161300f015281816130fe01528181613570015261364101526159806000f3fe608060405234801561001057600080fd5b50600436106101c45760003560e01c8063aa947930116100f9578063e2bbb15811610097578063f178ad7a11610071578063f178ad7a146105b4578063f2020275146105c7578063f6c4b6d5146105dc578063fced2e37146105ff57600080fd5b8063e2bbb15814610580578063e6fccf5d14610593578063e93573ac146105a157600080fd5b8063c45a0155116100d3578063c45a015514610507578063d0ecd0d21461052e578063d11711a214610551578063d21220a71461055957600080fd5b8063aa947930146104d9578063b0f285ee146104e1578063c31c9c07146104f457600080fd5b806357b47a1311610166578063791b98bc11610140578063791b98bc146104885780637a79cf471461049b5780638ab4c562146104a3578063a810a54c146104c657600080fd5b806357b47a1314610386578063597197fc1461038e5780635f8d96de1461048057600080fd5b80631ba326c4116101a25780631ba326c4146102d0578063350245c2146102f1578063412736571461035e57806356d6e7e51461037357600080fd5b80630dfe1681146101c95780630ecc535f1461020d57806316f0115b146102a9575b600080fd5b6101f07f000000000000000000000000000000000000000000000000000000000000000081565b6040516001600160a01b0390911681526020015b60405180910390f35b61027061021b366004614d0a565b601c602090815260009182526040918290208251808401845281548152600182015481840152835180850190945260028201548452600382015492840192909252600481015460059091015491929160ff1684565b604080518551815260209586015186820152845191810191909152939092015160608401526080830152151560a082015260c001610204565b6101f07f000000000000000000000000000000000000000000000000000000000000000081565b6102e36102de366004614fe8565b610612565b604051908152602001610204565b600854600954600a54600b54600c5461032394936001600160801b0316929190600281810b9163010000009004900b86565b604080519687526001600160801b039095166020870152938501929092526060840152600290810b60808401520b60a082015260c001610204565b61037161036c366004614d0a565b610637565b005b610371610381366004614f34565b610723565b610371610a84565b600d54600e54600f5460408051808201825260105481526011546020808301919091528251808401845260125481526013548183015260145460155485518087018752601654815260175481860152865180880190975260185487526019549487019490945261040c98979660070b959293919260ff909116919089565b60408051998a526020808b019990995260079790970b9689019690965284516060890152938601516080880152825160a08801529185015160c087015260e086015215156101008501528051610120850152820151610140840152805161016084015201516101808201526101a001610204565b6102e3610c71565b6002546101f0906001600160a01b031681565b610371610c83565b6004546005546104b1919082565b60408051928352602083019190915201610204565b6103716104d4366004614d44565b61142b565b61037161161b565b6001546101f0906001600160a01b031681565b6003546101f0906001600160a01b031681565b6101f07f000000000000000000000000000000000000000000000000000000000000000081565b61054161053c366004614df9565b6117c4565b6040519015158152602001610204565b610371611812565b6101f07f000000000000000000000000000000000000000000000000000000000000000081565b61037161058e366004614fa2565b61191b565b6006546007546104b1919082565b6103716105af366004614de1565b611d3f565b6103716105c2366004614d0a565b6120a3565b6105cf612190565b60405161020491906152d5565b6105416105ea366004614d0a565b601b6020526000908152604090205460ff1681565b61037161060d366004614d9b565b6121f2565b6000811561062a57610625848484612478565b61062d565b60005b90505b9392505050565b7f00000000000000000000000000000000000000000000000000000000000000006001600160a01b0316638da5cb5b6040518163ffffffff1660e01b815260040160206040518083038186803b15801561069057600080fd5b505afa1580156106a4573d6000803e3d6000fd5b505050506040513d601f19601f820116820180604052508101906106c89190614d27565b6001600160a01b0316336001600160a01b0316146107015760405162461bcd60e51b81526004016106f890615408565b60405180910390fd5b600380546001600160a01b0319166001600160a01b0392909216919091179055565b6001546040516323b872dd60e01b81523360048201523060248201526044810183905282916001600160a01b0316906323b872dd90606401600060405180830381600087803b15801561077557600080fd5b505af1158015610789573d6000803e3d6000fd5b505060025460405163133f757160e31b8152600481018690526000935083925082916001600160a01b0316906399fbab88906024016101806040518083038186803b1580156107d757600080fd5b505afa1580156107eb573d6000803e3d6000fd5b505050506040513d601f19601f8201168201806040525081019061080f9190615014565b5050505097505050509450945050507f00000000000000000000000000000000000000000000000000000000000000006001600160a01b0316836001600160a01b03161461086f5760405162461bcd60e51b81526004016106f89061539a565b7f00000000000000000000000000000000000000000000000000000000000000006001600160a01b0316826001600160a01b0316146108c05760405162461bcd60e51b81526004016106f89061539a565b60006040518060a00160405280878152602001836001600160801b0316815260200160008152602001600081526020016108f8610c71565b9052600254604051630624e65f60e11b81529192506001600160a01b031690630c49ccbe9061092b9084906004016154b9565b6040805180830381600087803b15801561094457600080fd5b505af1158015610958573d6000803e3d6000fd5b505050506040513d601f19601f8201168201806040525081019061097c9190614fc4565b5050604080516080810182528781523060208201526001600160801b038183018190526060820152600254915163fc6f786560e01b8152909160009182916001600160a01b03169063fc6f7865906109d8908690600401615476565b6040805180830381600087803b1580156109f157600080fd5b505af1158015610a05573d6000803e3d6000fd5b505050506040513d601f19601f82011682018060405250810190610a299190614fc4565b91509150610a797f00000000000000000000000000000000000000000000000000000000000000007f000000000000000000000000000000000000000000000000000000000000000084846125fd565b505050505050505050565b60026000541415610aa75760405162461bcd60e51b81526004016106f89061543f565b6002600055600f54600790810b900b15610ad35760405162461bcd60e51b81526004016106f8906153d1565b7f00000000000000000000000000000000000000000000000000000000000000006001600160a01b031663cec5926c6040518163ffffffff1660e01b815260040160206040518083038186803b158015610b2c57600080fd5b505afa158015610b40573d6000803e3d6000fd5b505050506040513d601f19601f82011682018060405250810190610b649190614f4d565b600d54610b71904361581e565b1015610bcb5760405162461bcd60e51b815260206004820152602360248201527f526562616c616e6365723a2057616974206d6f726520746f2073746172742073604482015262756d6d60e81b60648201526084016106f8565b600f805460070b906000610bde83615861565b91906101000a81548167ffffffffffffffff021916908360070b67ffffffffffffffff16021790555050610c10612785565b610c186128b8565b610c20612c73565b600f5460408051338152600792830b90920b602083015243908201527f4addd45858f29e6ddfc82bd66f88b9742f5b63db507c925aef85298d9d90bb12906060015b60405180910390a16001600055565b6000610c7e42603c615712565b905090565b7f00000000000000000000000000000000000000000000000000000000000000006001600160a01b0316638da5cb5b6040518163ffffffff1660e01b815260040160206040518083038186803b158015610cdc57600080fd5b505afa158015610cf0573d6000803e3d6000fd5b505050506040513d601f19601f82011682018060405250810190610d149190614d27565b6001600160a01b0316336001600160a01b031614610d445760405162461bcd60e51b81526004016106f890615408565b60026000541415610d675760405162461bcd60e51b81526004016106f89061543f565b6002600055600f54600790810b900b15610d935760405162461bcd60e51b81526004016106f8906153d1565b600854600090610df15760405162461bcd60e51b815260206004820152602360248201527f526562616c616e6365723a20506f736974696f6e206d757374206265206f70656044820152621b995960ea1b60648201526084016106f8565b60408051808201918290526370a0823160e01b909152306044820152600090807f00000000000000000000000000000000000000000000000000000000000000006001600160a01b03166370a082316064830160206040518083038186803b158015610e5c57600080fd5b505afa158015610e70573d6000803e3d6000fd5b505050506040513d601f19601f82011682018060405250810190610e949190614f4d565b81526040516370a0823160e01b81523060048201526020909101906001600160a01b037f000000000000000000000000000000000000000000000000000000000000000016906370a082319060240160206040518083038186803b158015610efb57600080fd5b505afa158015610f0f573d6000803e3d6000fd5b505050506040513d601f19601f82011682018060405250810190610f339190614f4d565b9052604080518082019091526004546006549293506000928291610f5691615712565b8152600554600754602090920191610f6e9190615712565b9052905060005b601a5481101561122257601c6000601a8381548110610f9657610f966158e9565b60009182526020808320909101546001600160a01b03168352820192909252604001812060020154601a80549192601c9290919085908110610fda57610fda6158e9565b60009182526020808320909101546001600160a01b031683528201929092526040019020546110099190615712565b82518390611018908390615712565b905250601a8054601c9160009184908110611035576110356158e9565b60009182526020808320909101546001600160a01b03168352820192909252604001812060030154601a80549192601c9290919085908110611079576110796158e9565b60009182526020808320909101546001600160a01b031683528201929092526040019020600101546110ab9190615712565b826020018181516110bc9190615712565b9150818152505061115e601c6000601a84815481106110dd576110dd6158e9565b60009182526020808320909101546001600160a01b031683528281019390935260409182019020815160c081018352815460808201908152600183015460a083015281528251808401845260028301548152600383015481860152938101939093526004810154918301919091526005015460ff16151560608201526117c4565b156111b5576000601b6000601a848154811061117c5761117c6158e9565b6000918252602080832091909101546001600160a01b031683528201929092526040019020805460ff1916911515919091179055611210565b836111bf81615888565b9450506001601b6000601a84815481106111db576111db6158e9565b6000918252602080832091909101546001600160a01b031683528201929092526040019020805460ff19169115159190911790555b8061121a81615888565b915050610f75565b508151815114801561123b575081602001518160200151145b6112a65760405162461bcd60e51b815260206004820152603660248201527f526562616c616e6365723a20596f7520686176656e2774206163636f756e74656044820152756420736f6d652066756e6473206d6f76656d656e747360501b60648201526084016106f8565b6112b08183612f2f565b60008367ffffffffffffffff8111156112cb576112cb6158ff565b6040519080825280602002602001820160405280156112f4578160200160208202803683370190505b5090506000935060005b601a548110156113c757601b6000601a838154811061131f5761131f6158e9565b60009182526020808320909101546001600160a01b0316835282019290925260400190205460ff16156113b557601a818154811061135f5761135f6158e9565b9060005260206000200160009054906101000a90046001600160a01b031682868151811061138f5761138f6158e9565b6001600160a01b0390921660209283029190910190910152846113b181615888565b9550505b806113bf81615888565b9150506112fe565b50601a5481516040517f319426fcc36bac971c8f20fb2514e8d07af7bd8bd6fbb3e46da19aea082567419261140492908252602082015260400190565b60405180910390a1805161141f90601a906020840190614bdc565b50506001600055505050565b6002600054141561144e5760405162461bcd60e51b81526004016106f89061543f565b6002600055600f54600790810b900b1561147a5760405162461bcd60e51b81526004016106f8906153d1565b336000908152601b602052604090205460ff166114d95760405162461bcd60e51b815260206004820152601a60248201527f526562616c616e6365723a206e6f206465706f7369742079657400000000000060448201526064016106f8565b336000908152601c602090815260408083208151808301909252805482526001810180549383019390935283815592909155821561155057600282015481518290611525908390615712565b905250600382015460208201805161153e908390615712565b90525060006002830181905560038301555b80511561158f57805161158f906001600160a01b037f0000000000000000000000000000000000000000000000000000000000000000169033906131d6565b6020810151156115d45760208101516115d4906001600160a01b037f0000000000000000000000000000000000000000000000000000000000000000169033906131d6565b7fba88e9ce2c804abf9a0e0bdb79a9591c8bc6bac6657a64298030894d1b298408338483856040516116099493929190615210565b60405180910390a15050600160005550565b6002600054141561163e5760405162461bcd60e51b81526004016106f89061543f565b6002600055600f54600790810b900b600114806116645750600f54600790810b900b6002145b6116b05760405162461bcd60e51b815260206004820152601960248201527f46697273742073746172742073756d6d6172697a6174696f6e0000000000000060448201526064016106f8565b7f0b5937e89d051e6853b4b5838d041b07e024515f143c8fa1ebdbe83a2bd4709c33600d436040516116e49392919061527c565b60405180910390a1600f54600790810b900b6001141561175057600061170861323e565b9050801561174e57600f805460070b90600061172383615861565b91906101000a81548167ffffffffffffffff021916908360070b67ffffffffffffffff160217905550505b505b600f54600790810b900b600214156117bd57600e5461177157611771613784565b600061177b61388c565b905080156117bb57600f805467ffffffffffffffff191690556000600e556006541515806117aa575060075415155b6117b55760006117b7565b435b600d555b505b6001600055565b6000816040015160001480156117dd5750602082015151155b80156117ee57506020808301510151155b80156117fd5750815160200151155b801561180c5750815160200151155b92915050565b600260005414156118355760405162461bcd60e51b81526004016106f89061543f565b6002600055600f54600790810b900b156118615760405162461bcd60e51b81526004016106f8906153d1565b336000908152601b602052604090205460ff166118c05760405162461bcd60e51b815260206004820152601a60248201527f526562616c616e6365723a206e6f206465706f7369742079657400000000000060448201526064016106f8565b336000818152601c60205260409081902060058101805460ff19811660ff9182161590811790925592517f032152c99c859b5112b4db6e058e334ebb14473b8bd576ce5c9576d1b6c43f3c94610c6294909392169190615256565b6002600054141561193e5760405162461bcd60e51b81526004016106f89061543f565b6002600055600f54600790810b900b1561196a5760405162461bcd60e51b81526004016106f8906153d1565b60008211806119795750600081115b6119955760405162461bcd60e51b81526004016106f890615357565b604051636eb1769f60e11b815233600482015230602482015282907f00000000000000000000000000000000000000000000000000000000000000006001600160a01b03169063dd62ed3e9060440160206040518083038186803b1580156119fc57600080fd5b505afa158015611a10573d6000803e3d6000fd5b505050506040513d601f19601f82011682018060405250810190611a349190614f4d565b1015611a825760405162461bcd60e51b815260206004820152601f60248201527f746f6b656e3020616c6c6f77616e6365203c20746f6b656e30416d6f756e740060448201526064016106f8565b604051636eb1769f60e11b815233600482015230602482015281907f00000000000000000000000000000000000000000000000000000000000000006001600160a01b03169063dd62ed3e9060440160206040518083038186803b158015611ae957600080fd5b505afa158015611afd573d6000803e3d6000fd5b505050506040513d601f19601f82011682018060405250810190611b219190614f4d565b1015611b6f5760405162461bcd60e51b815260206004820152601f60248201527f746f6b656e3120616c6c6f77616e6365203c20746f6b656e31416d6f756e740060448201526064016106f8565b8115611baa57611baa6001600160a01b037f0000000000000000000000000000000000000000000000000000000000000000163330856139f5565b8015611be557611be56001600160a01b037f0000000000000000000000000000000000000000000000000000000000000000163330846139f5565b336000908152601c602052604081206002018054849290611c07908490615712565b9091555050336000908152601c602052604081206003018054839290611c2e908490615712565b9091555050336000818152601c60205260409081902060058101805460ff1916600117905590517fdb84b625dfc2983618d9c2195bf34793969c4d226e7a1f66b60010ea0e127fad92611c86929091869186916152a9565b60405180910390a1336000908152601b602052604090205460ff16611d3657336000818152601b60209081526040808320805460ff19166001908117909155601a805491820181559093527f057c384a7d1c54f3a1b2e5e67b2617b8224fdfd1ea7234eea573a6ff665ff63e90920180546001600160a01b0319168417905590519182527f0b0376a109cbb578b709f85f6a7befcdac3ac1ab251c99ede87f30c9572ac4d3910160405180910390a15b50506001600055565b6000611d4e6020830183614d0a565b6001600160a01b0316630dfe16816040518163ffffffff1660e01b815260040160206040518083038186803b158015611d8657600080fd5b505afa158015611d9a573d6000803e3d6000fd5b505050506040513d601f19601f82011682018060405250810190611dbe9190614d27565b90506000611dcf6020840184614d0a565b6001600160a01b031663d21220a76040518163ffffffff1660e01b815260040160206040518083038186803b158015611e0757600080fd5b505afa158015611e1b573d6000803e3d6000fd5b505050506040513d601f19601f82011682018060405250810190611e3f9190614d27565b90507f00000000000000000000000000000000000000000000000000000000000000006001600160a01b0316826001600160a01b031614611e925760405162461bcd60e51b81526004016106f89061539a565b7f00000000000000000000000000000000000000000000000000000000000000006001600160a01b0316816001600160a01b031614611ee35760405162461bcd60e51b81526004016106f89061539a565b611ef06020840184614d0a565b6001600160a01b03166323b872dd33611f0c6020870187614d0a565b6040516001600160e01b031960e085901b1681526001600160a01b0392831660048201529116602482015260208601356044820152606401602060405180830381600087803b158015611f5e57600080fd5b505af1158015611f72573d6000803e3d6000fd5b505050506040513d601f19601f82011682018060405250810190611f969190614d61565b50600080611fa76020860186614d0a565b60405163226bf2d160e21b81523060048201526001600160a01b0391909116906389afcb44906024016040805180830381600087803b158015611fe957600080fd5b505af1158015611ffd573d6000803e3d6000fd5b505050506040513d601f19601f820116820180604052508101906120219190614fc4565b9150915060008211806120345750600081115b6120505760405162461bcd60e51b81526004016106f890615357565b61209c7f00000000000000000000000000000000000000000000000000000000000000007f000000000000000000000000000000000000000000000000000000000000000084846125fd565b5050505050565b7f00000000000000000000000000000000000000000000000000000000000000006001600160a01b0316638da5cb5b6040518163ffffffff1660e01b815260040160206040518083038186803b1580156120fc57600080fd5b505afa158015612110573d6000803e3d6000fd5b505050506040513d601f19601f820116820180604052508101906121349190614d27565b6001600160a01b0316336001600160a01b0316146121645760405162461bcd60e51b81526004016106f890615408565b600180546001600160a01b039092166001600160a01b0319928316811790915560028054909216179055565b6060601a8054806020026020016040519081016040528092919081815260200182805480156121e857602002820191906000526020600020905b81546001600160a01b031681526001909101906020018083116121ca575b5050505050905090565b7f00000000000000000000000000000000000000000000000000000000000000006001600160a01b0316638da5cb5b6040518163ffffffff1660e01b815260040160206040518083038186803b15801561224b57600080fd5b505afa15801561225f573d6000803e3d6000fd5b505050506040513d601f19601f820116820180604052508101906122839190614d27565b6001600160a01b0316336001600160a01b0316146122b35760405162461bcd60e51b81526004016106f890615408565b600260005414156122d65760405162461bcd60e51b81526004016106f89061543f565b6002600055600f54600790810b900b156123025760405162461bcd60e51b81526004016106f8906153d1565b6123386040518060400160405280600f81526020016e0696e5374616b652e616d6f756e743608c1b815250600660000154613a2d565b61236e6040518060400160405280600f81526020016e696e5374616b652e616d6f756e743160881b815250600660010154613a2d565b60065415158061237f575060075415155b6123cb5760405162461bcd60e51b815260206004820152601a60248201527f526562616c616e6365723a205374616b6520697320656d70747900000000000060448201526064016106f8565b6008546123e3576123de84848484613a72565b6123ff565b6123eb612785565b6123f36128b8565b6123ff84848484613a72565b60408051600286810b825285900b602082015290810183905260608101829052600654608082015260075460a082015260045460c082015260055460e08201527fe0f908dc9a3a317bedaca94bd5f545ed86c38d61097483f7b53d4a159a43eb43906101000160405180910390a1505060016000555050565b6000808060001985870985870292508281108382030391505080600014156124b257600084116124a757600080fd5b508290049050610630565b8084116124be57600080fd5b6000848688098084039381119092039190506000856124df8160001961581e565b6124ea906001615712565b1695869004959384900493600081900304600101905061250a81846157b7565b90931792600061251b8760036157b7565b600218905061252a81886157b7565b61253590600261581e565b61253f90826157b7565b905061254b81886157b7565b61255690600261581e565b61256090826157b7565b905061256c81886157b7565b61257790600261581e565b61258190826157b7565b905061258d81886157b7565b61259890600261581e565b6125a290826157b7565b90506125ae81886157b7565b6125b990600261581e565b6125c390826157b7565b90506125cf81886157b7565b6125da90600261581e565b6125e490826157b7565b90506125f081866157b7565b9998505050505050505050565b6002546126159085906001600160a01b03168461429c565b60025461262d9084906001600160a01b03168361429c565b336000908152601c60205260408120600201805484929061264f908490615712565b9091555050336000908152601c602052604081206003018054839290612676908490615712565b9091555050336000818152601c60205260409081902060058101805460ff1916600117905590517fdb84b625dfc2983618d9c2195bf34793969c4d226e7a1f66b60010ea0e127fad926126ce929091869186916152a9565b60405180910390a1336000908152601b602052604090205460ff1661277f57336000818152601b60209081526040808320805460ff19166001908117909155601a805491820181559093527f057c384a7d1c54f3a1b2e5e67b2617b8224fdfd1ea7234eea573a6ff665ff63e90920180546001600160a01b0319168417905590519182527f0b0376a109cbb578b709f85f6a7befcdac3ac1ab251c99ede87f30c9572ac4d391015b60405180910390a15b50505050565b600854156128b6576002546040805160808101825260085481523060208201526001600160801b0381830181905260608201819052915163fc6f786560e01b8152919260009283926001600160a01b039092169163fc6f7865916127ec9190600401615476565b6040805180830381600087803b15801561280557600080fd5b505af1158015612819573d6000803e3d6000fd5b505050506040513d601f19601f8201168201806040525081019061283d9190614fc4565b9150915081600460000160008282546128569190615712565b909155505060058054829190600090612870908490615712565b90915550506040517fc44ad483084548c44608c0ff312a51e0ef32847bbee51d3866259cf7ac74664a906128aa908490849060049061567c565b60405180910390a15050505b565b600854156128b65760015460025460085460405163095ea7b360e01b81526001600160a01b039283166004820152602481019190915291169063095ea7b390604401600060405180830381600087803b15801561291457600080fd5b505af1158015612928573d6000803e3d6000fd5b50506002546040805160a08101825260085481526009546001600160801b031660208201526000918101829052606081018290529093508392506001600160a01b0390911690630c49ccbe9060808101612980610c71565b8152506040518263ffffffff1660e01b815260040161299f91906154b9565b6040805180830381600087803b1580156129b857600080fd5b505af11580156129cc573d6000803e3d6000fd5b505050506040513d601f19601f820116820180604052508101906129f09190614fc4565b6002546040805160808101825260085481523060208201526001600160801b0381830181905260608201819052915163fc6f786560e01b81529496509294509260009283926001600160a01b03169163fc6f786591612a5191600401615476565b6040805180830381600087803b158015612a6a57600080fd5b505af1158015612a7e573d6000803e3d6000fd5b505050506040513d601f19601f82011682018060405250810190612aa29190614fc4565b909250905081612ab2868261581e565b612abc9190615712565b60068054600090612ace908490615712565b90915550819050612adf858261581e565b612ae99190615712565b60078054600090612afb908490615712565b909155505060015460025460085460405163095ea7b360e01b81526001600160a01b039283166004820152602481019190915291169063095ea7b390604401600060405180830381600087803b158015612b5457600080fd5b505af1158015612b68573d6000803e3d6000fd5b5050600254600854604051630852cd8d60e31b81526001600160a01b0390921693506342966c689250612ba19160040190815260200190565b600060405180830381600087803b158015612bbb57600080fd5b505af1158015612bcf573d6000803e3d6000fd5b50506040805160c081018252600080825260208201819052818301819052606082018190526080820181905260a09091018190526008819055600980546001600160801b0319169055600a819055600b55600c805465ffffffffffff19169055517fbfa211530298cfd52f02788104797e992eae978eef411e162b4b4440b063d4b79250612c6491508790879060069061567c565b60405180910390a15050505050565b6000807f00000000000000000000000000000000000000000000000000000000000000006001600160a01b031663d19d40bd6040518163ffffffff1660e01b8152600401604080518083038186803b158015612cce57600080fd5b505afa158015612ce2573d6000803e3d6000fd5b505050506040513d601f19601f82011682018060405250810190612d069190614fc4565b91509150600080612d1d6004600001548585610612565b91508115612e0557612dea7f00000000000000000000000000000000000000000000000000000000000000006001600160a01b0316638da5cb5b6040518163ffffffff1660e01b815260040160206040518083038186803b158015612d8157600080fd5b505afa158015612d95573d6000803e3d6000fd5b505050506040513d601f19601f82011682018060405250810190612db99190614d27565b6001600160a01b037f00000000000000000000000000000000000000000000000000000000000000001690846131d6565b8160046000016000828254612dff919061581e565b90915550505b600554612e13908585610612565b90508015612efb57612ee07f00000000000000000000000000000000000000000000000000000000000000006001600160a01b0316638da5cb5b6040518163ffffffff1660e01b815260040160206040518083038186803b158015612e7757600080fd5b505afa158015612e8b573d6000803e3d6000fd5b505050506040513d601f19601f82011682018060405250810190612eaf9190614d27565b6001600160a01b037f00000000000000000000000000000000000000000000000000000000000000001690836131d6565b8060046001016000828254612ef5919061581e565b90915550505b7fad6e518d74fe75cd951948faa82d2f07ea74f091d6e66c1d7eaf1d609f9f6ca8828260046040516127769392919061567c565b8151815110801590612f4957508160200151816020015110155b612fbb5760405162461bcd60e51b815260206004820152603960248201527f526562616c616e6365723a20596f75206d757374206e65766572206f7765206d60448201527f6f726520746f6b656e732c207468616e20796f7520686176650000000000000060648201526084016106f8565b7fe6c65e4a138c359ec397e29d8b8d5362a87dc44d7f16bb0f446936a1fc45ddb88183604051612fec929190615630565b60405180910390a1815181516000916130049161581e565b11156130dd576130dd7f00000000000000000000000000000000000000000000000000000000000000006001600160a01b0316638da5cb5b6040518163ffffffff1660e01b815260040160206040518083038186803b15801561306657600080fd5b505afa15801561307a573d6000803e3d6000fd5b505050506040513d601f19601f8201168201806040525081019061309e9190614d27565b835183516130ac919061581e565b6001600160a01b037f00000000000000000000000000000000000000000000000000000000000000001691906131d6565b6000826020015182602001516130f3919061581e565b11156131d2576131d27f00000000000000000000000000000000000000000000000000000000000000006001600160a01b0316638da5cb5b6040518163ffffffff1660e01b815260040160206040518083038186803b15801561315557600080fd5b505afa158015613169573d6000803e3d6000fd5b505050506040513d601f19601f8201168201806040525081019061318d9190614d27565b836020015183602001516131a1919061581e565b6001600160a01b037f00000000000000000000000000000000000000000000000000000000000000001691906131d6565b5050565b6040516001600160a01b03831660248201526044810182905261323990849063a9059cbb60e01b906064015b60408051601f198184030181529190526020810180516001600160e01b03166001600160e01b0319909316929092179091526143c4565b505050565b600e54600090815a905060005b601a548310156134bf57805a1015613268575050600e5550600090565b6000601c6000601a8681548110613281576132816158e9565b60009182526020808320909101546001600160a01b0316835282810193909352604091820181208251808401845282815280850183905283518085019094528284529383019190915260048054908201546014549295506132e192610612565b825183906132f0908390615712565b9052506005546004840154601454613309929190610612565b8260200181815161331a9190615712565b9052506006546004840154601454613333929190610612565b81518290613342908390615712565b905250600754600484015460145461335b929190610612565b8160200181815161336c9190615712565b905250815183548490600090613383908490615712565b909155505060208201516001840180546000906133a1908490615712565b909155505080516002840180546000906133bc908490615712565b909155505060208101516003840180546000906133da908490615712565b90915550508151601680546000906133f3908490615712565b909155505060208201516017805460009061340f908490615712565b9091555050805160188054600090613428908490615712565b9091555050602081015160198054600090613444908490615712565b909155505060006004840155600583015460ff161561349657600283015460128054600090613474908490615712565b9091555050600383015460138054600090613490908490615712565b90915550505b836134a9575a6134a6908661581e565b93505b50505082806134b790615888565b93505061324b565b601654600480546000906134d490849061581e565b9091555050601754600580546000906134ee90849061581e565b90915550506018546006805460009061350890849061581e565b90915550506019546007805460009061352290849061581e565b9091555050604080518082019091526006546004546000929182916135479190615712565b815260075460055460209092019161355f9190615712565b9052805190915015613632576136327f00000000000000000000000000000000000000000000000000000000000000006001600160a01b0316638da5cb5b6040518163ffffffff1660e01b815260040160206040518083038186803b1580156135c757600080fd5b505afa1580156135db573d6000803e3d6000fd5b505050506040513d601f19601f820116820180604052508101906135ff9190614d27565b82516001600160a01b037f00000000000000000000000000000000000000000000000000000000000000001691906131d6565b602081015115613706576137067f00000000000000000000000000000000000000000000000000000000000000006001600160a01b0316638da5cb5b6040518163ffffffff1660e01b815260040160206040518083038186803b15801561369857600080fd5b505afa1580156136ac573d6000803e3d6000fd5b505050506040513d601f19601f820116820180604052508101906136d09190614d27565b60208301516001600160a01b037f00000000000000000000000000000000000000000000000000000000000000001691906131d6565b60006004819055600581905560128054600690815560138054600755918390559190556040517f0b4d51621758ce7c6ac9df32916c8a483d337cb8eb22b81c2d8f43362266877c9161375d91859190600d90615656565b60405180910390a15050600060168190556017819055601881905560195550600192915050565b600654600754808211156137f5576015805460ff19166001179055600654156137b3576137b360006064614496565b81156137f0576040518060400160405280826006600101546137d5919061581e565b81526020908101849052815160105501516011556007546014555b613850565b6015805460ff19169055600754156138135761381360646000614496565b801561385057604051806040016040528083600660000154613835919061581e565b81526020908101839052815160105501516011556006546014555b7f536fe74e35f7b5d2d1d902051a047c4553c0175367694e4278359c901c4ee64a600d6040516138809190615621565b60405180910390a15050565b600e54600090815a905060005b601a548310156139ae57805a10156138b6575050600e5550600090565b6000601c6000601a86815481106138cf576138cf6158e9565b60009182526020808320909101546001600160a01b031683528201929092526040019020600581015490915060ff16156139885760155460009060ff1661392b576003820154601054601154613926929190610612565b613941565b6002820154601054601154613941929190610612565b60155490915060ff1661396357600282015461395e908290615712565b613973565b6003820154613973908290615712565b60048301555060006002820181905560038201555b8161399b575a613998908461581e565b91505b50826139a681615888565b935050613899565b7f1296f68b35e8f852c6ee5a3815b1e52b82606f025eec13363baff853db24856c816006600d6040516139e393929190615656565b60405180910390a16001935050505090565b6040516001600160a01b038085166024830152831660448201526064810182905261277f9085906323b872dd60e01b90608401613202565b6131d28282604051602401613a43929190615335565b60408051601f198184030181529190526020810180516001600160e01b03166309710a9d60e41b179052614725565b60007f00000000000000000000000000000000000000000000000000000000000000006001600160a01b0316633850c7bd6040518163ffffffff1660e01b815260040160e06040518083038186803b158015613acd57600080fd5b505afa158015613ae1573d6000803e3d6000fd5b505050506040513d601f19601f82011682018060405250810190613b059190614e81565b505050505091505060007f00000000000000000000000000000000000000000000000000000000000000006001600160a01b031663d0c93a7c6040518163ffffffff1660e01b815260040160206040518083038186803b158015613b6857600080fd5b505afa158015613b7c573d6000803e3d6000fd5b505050506040513d601f19601f82011682018060405250810190613ba09190614d7e565b613baa90836158a3565b613bb490836157d6565b905060007f00000000000000000000000000000000000000000000000000000000000000006001600160a01b031663d0c93a7c6040518163ffffffff1660e01b815260040160206040518083038186803b158015613c1157600080fd5b505afa158015613c25573d6000803e3d6000fd5b505050506040513d601f19601f82011682018060405250810190613c499190614d7e565b613c5390836157d6565b905060007f00000000000000000000000000000000000000000000000000000000000000006001600160a01b031663d0c93a7c6040518163ffffffff1660e01b815260040160206040518083038186803b158015613cb057600080fd5b505afa158015613cc4573d6000803e3d6000fd5b505050506040513d601f19601f82011682018060405250810190613ce89190614d7e565b613cf290846156cb565b90507f00000000000000000000000000000000000000000000000000000000000000006001600160a01b031663d0c93a7c6040518163ffffffff1660e01b815260040160206040518083038186803b158015613d4d57600080fd5b505afa158015613d61573d6000803e3d6000fd5b505050506040513d601f19601f82011682018060405250810190613d859190614d7e565b613d8f908961572a565b613d9990836157d6565b91507f00000000000000000000000000000000000000000000000000000000000000006001600160a01b031663d0c93a7c6040518163ffffffff1660e01b815260040160206040518083038186803b158015613df457600080fd5b505afa158015613e08573d6000803e3d6000fd5b505050506040513d601f19601f82011682018060405250810190613e2c9190614d7e565b613e36908861572a565b613e4090826156cb565b9050613e4c8686614496565b600254600654613e8a916001600160a01b037f0000000000000000000000000000000000000000000000000000000000000000811692911690614746565b600254600754613ec8916001600160a01b037f0000000000000000000000000000000000000000000000000000000000000000811692911690614746565b600080600080600260009054906101000a90046001600160a01b03166001600160a01b031663883164566040518061016001604052807f00000000000000000000000000000000000000000000000000000000000000006001600160a01b0316630dfe16816040518163ffffffff1660e01b815260040160206040518083038186803b158015613f5757600080fd5b505afa158015613f6b573d6000803e3d6000fd5b505050506040513d601f19601f82011682018060405250810190613f8f9190614d27565b6001600160a01b031681526020017f00000000000000000000000000000000000000000000000000000000000000006001600160a01b031663d21220a76040518163ffffffff1660e01b815260040160206040518083038186803b158015613ff657600080fd5b505afa15801561400a573d6000803e3d6000fd5b505050506040513d601f19601f8201168201806040525081019061402e9190614d27565b6001600160a01b031681526020017f00000000000000000000000000000000000000000000000000000000000000006001600160a01b031663ddca3f436040518163ffffffff1660e01b815260040160206040518083038186803b15801561409557600080fd5b505afa1580156140a9573d6000803e3d6000fd5b505050506040513d601f19601f820116820180604052508101906140cd9190614f19565b62ffffff16815260028a810b602083015289900b604082015260065460608201526007546080820152600060a0820181905260c08201523060e082015261010001614116610c71565b8152506040518263ffffffff1660e01b815260040161413591906154fc565b608060405180830381600087803b15801561414f57600080fd5b505af1158015614163573d6000803e3d6000fd5b505050506040513d601f19601f820116820180604052508101906141879190614f66565b935093509350935081600660000160008282546141a4919061581e565b9091555050600780548291906000906141be90849061581e565b90915550506040805160c0810182528581526001600160801b0385166020820181905281830185905260608201849052600289810b6080840181905289820b60a09094018490526008898155600980546001600160801b031916909417909355600a879055600b869055600c805494830b62ffffff90811663010000000265ffffffffffff199096169290930b909216179290921790915590517ff8c87fb00457cf273795639910be5d19ab26a00c491b3a5f1e9bfa2e93ceb5f591614286916006906155c0565b60405180910390a1505050505050505050505050565b604080516001600160a01b038481166024830152604480830185905283518084039091018152606490920183526020820180516001600160e01b031663095ea7b360e01b17905291516000928392908716916142f891906151f4565b6000604051808303816000865af19150503d8060008114614335576040519150601f19603f3d011682016040523d82523d6000602084013e61433a565b606091505b50915091508180156143645750805115806143645750808060200190518101906143649190614d61565b61209c5760405162461bcd60e51b815260206004820152602b60248201527f5472616e7366657248656c7065723a3a73616665417070726f76653a2061707060448201526a1c9bdd994819985a5b195960aa1b60648201526084016106f8565b6000614419826040518060400160405280602081526020017f5361666545524332303a206c6f772d6c6576656c2063616c6c206661696c6564815250856001600160a01b03166148079092919063ffffffff16565b80519091501561323957808060200190518101906144379190614d61565b6132395760405162461bcd60e51b815260206004820152602a60248201527f5361666545524332303a204552433230206f7065726174696f6e20646964206e6044820152691bdd081cdd58d8d9595960b21b60648201526084016106f8565b6144a08183615712565b6064146144e75760405162461bcd60e51b81526020600482015260156024820152740746f6b656e53686172652073756d20213d2031303605c1b60448201526064016106f8565b60075460065460009110156145f5576145467f00000000000000000000000000000000000000000000000000000000000000007f0000000000000000000000000000000000000000000000000000000000000000600660010154614816565b60068054600090614558908490615712565b9091555050600060075560065461457190836064610612565b90506145be7f00000000000000000000000000000000000000000000000000000000000000007f000000000000000000000000000000000000000000000000000000000000000083614816565b600780546000906145d0908490615712565b9091555050600680548291906000906145ea90849061581e565b909155506146ef9050565b6146457f00000000000000000000000000000000000000000000000000000000000000007f0000000000000000000000000000000000000000000000000000000000000000600660000154614816565b60078054600090614657908490615712565b9091555050600060065560075461467090846064610612565b90506146bd7f00000000000000000000000000000000000000000000000000000000000000007f000000000000000000000000000000000000000000000000000000000000000083614816565b600680546000906146cf908490615712565b9091555050600780548291906000906146e990849061581e565b90915550505b7f47161b4468e4b496875ef9210a96a0d96de7a4d729ce4e60cbfbf4bc139322c183838360066040516128aa94939291906156a0565b80516a636f6e736f6c652e6c6f67602083016000808483855afa5050505050565b604051636eb1769f60e11b81523060048201526001600160a01b038381166024830152600091839186169063dd62ed3e9060440160206040518083038186803b15801561479257600080fd5b505afa1580156147a6573d6000803e3d6000fd5b505050506040513d601f19601f820116820180604052508101906147ca9190614f4d565b6147d49190615712565b6040516001600160a01b03851660248201526044810182905290915061277f90859063095ea7b360e01b90606401613202565b606061062d8484600085614a79565b60008161482557506000610630565b60035461483f906001600160a01b03868116911684614746565b600360009054906101000a90046001600160a01b03166001600160a01b031663414bf389604051806101000160405280876001600160a01b03168152602001866001600160a01b031681526020017f00000000000000000000000000000000000000000000000000000000000000006001600160a01b031663ddca3f436040518163ffffffff1660e01b815260040160206040518083038186803b1580156148e657600080fd5b505afa1580156148fa573d6000803e3d6000fd5b505050506040513d601f19601f8201168201806040525081019061491e9190614f19565b62ffffff168152306020820152604001614936610c71565b8152602080820187905260006040808401829052606093840191909152805160e086811b6001600160e01b031916825285516001600160a01b03908116600484015293860151841660248301529185015162ffffff16604482015292840151821660648401526080840151608484015260a084015160a484015260c084015160c4840152929092015190911660e482015261010401602060405180830381600087803b1580156149e557600080fd5b505af11580156149f9573d6000803e3d6000fd5b505050506040513d601f19601f82011682018060405250810190614a1d9190614f4d565b604080516001600160a01b03808816825286166020820152908101849052606081018290529091507f25f1d03755df23c30e25db2dbd3891e31ce084bdfbfc46f9fe5e446ee5f9b2d49060800160405180910390a19392505050565b606082471015614ada5760405162461bcd60e51b815260206004820152602660248201527f416464726573733a20696e73756666696369656e742062616c616e636520666f6044820152651c8818d85b1b60d21b60648201526084016106f8565b843b614b285760405162461bcd60e51b815260206004820152601d60248201527f416464726573733a2063616c6c20746f206e6f6e2d636f6e747261637400000060448201526064016106f8565b600080866001600160a01b03168587604051614b4491906151f4565b60006040518083038185875af1925050503d8060008114614b81576040519150601f19603f3d011682016040523d82523d6000602084013e614b86565b606091505b5091509150614b96828286614ba3565b925050505b949350505050565b60608315614bb2575081610630565b825115614bc25782518084602001fd5b8160405162461bcd60e51b81526004016106f89190615322565b828054828255906000526020600020908101928215614c31579160200282015b82811115614c3157825182546001600160a01b0319166001600160a01b03909116178255602090920191600190910190614bfc565b50614c3d929150614c41565b5090565b5b80821115614c3d5760008155600101614c42565b8051614c6181615915565b919050565b8051614c618161593b565b600060408284031215614c8357600080fd5b6040516040810181811067ffffffffffffffff82111715614cb457634e487b7160e01b600052604160045260246000fd5b604052823581526020928301359281019290925250919050565b80516001600160801b0381168114614c6157600080fd5b805161ffff81168114614c6157600080fd5b805162ffffff81168114614c6157600080fd5b600060208284031215614d1c57600080fd5b813561063081615915565b600060208284031215614d3957600080fd5b815161063081615915565b600060208284031215614d5657600080fd5b81356106308161592d565b600060208284031215614d7357600080fd5b81516106308161592d565b600060208284031215614d9057600080fd5b81516106308161593b565b60008060008060808587031215614db157600080fd5b8435614dbc8161593b565b93506020850135614dcc8161593b565b93969395505050506040820135916060013590565b600060408284031215614df357600080fd5b50919050565b600060c08284031215614e0b57600080fd5b6040516080810181811067ffffffffffffffff82111715614e3c57634e487b7160e01b600052604160045260246000fd5b604052614e498484614c71565b8152614e588460408501614c71565b60208201526080830135604082015260a0830135614e758161592d565b60608201529392505050565b600080600080600080600060e0888a031215614e9c57600080fd5b8751614ea781615915565b6020890151909750614eb88161593b565b9550614ec660408901614ce5565b9450614ed460608901614ce5565b9350614ee260808901614ce5565b925060a088015160ff81168114614ef857600080fd5b60c0890151909250614f098161592d565b8091505092959891949750929550565b600060208284031215614f2b57600080fd5b61063082614cf7565b600060208284031215614f4657600080fd5b5035919050565b600060208284031215614f5f57600080fd5b5051919050565b60008060008060808587031215614f7c57600080fd5b84519350614f8c60208601614cce565b6040860151606090960151949790965092505050565b60008060408385031215614fb557600080fd5b50508035926020909101359150565b60008060408385031215614fd757600080fd5b505080516020909101519092909150565b600080600060608486031215614ffd57600080fd5b505081359360208301359350604090920135919050565b6000806000806000806000806000806000806101808d8f03121561503757600080fd5b8c516bffffffffffffffffffffffff8116811461505357600080fd5b9b5061506160208e01614c56565b9a5061506f60408e01614c56565b995061507d60608e01614c56565b985061508b60808e01614cf7565b975061509960a08e01614c66565b96506150a760c08e01614c66565b95506150b560e08e01614cce565b94506101008d015193506101208d015192506150d46101408e01614cce565b91506150e36101608e01614cce565b90509295989b509295989b509295989b565b6000815180845261510d816020860160208601615835565b601f01601f19169290920160200192915050565b8054825260018101546020830152600281015460070b615146604084018260070b9052565b506003810154606083015260048101546080830152600581015460a0830152600681015460c0830152600781015460e0830152600881015460ff1615156101008301526009810154610120830152600a810154610140830152600b810154610160830152600c015461018090910152565b80548252600181015460208301526002810154604083015260038101546060830152600481015460808301526005015460ff16151560a090910152565b60008251615206818460208701615835565b9190910192915050565b6001600160a01b038516815283151560208201526101408101615240604083018580518252602090810151910152565b61524d60808301846151b7565b95945050505050565b6001600160a01b038416815282151560208201526101008101614b9b60408301846151b7565b6001600160a01b03841681526101e0810161529a6020830185615121565b826101c0830152949350505050565b6001600160a01b03851681526020810184905260408101839052610120810161524d60608301846151b7565b6020808252825182820181905260009190848201906040850190845b818110156153165783516001600160a01b0316835292840192918401916001016152f1565b50909695505050505050565b60208152600061063060208301846150f5565b60408152600061534860408301856150f5565b90508260208301529392505050565b60208082526023908201527f456974686572206f6620746f6b656e20616d6f756e7473206d7573742062652060408201526203e20360ec1b606082015260800190565b60208082526018908201527f526562616c616e6365723a20496e76616c696420706169720000000000000000604082015260600190565b6020808252601a908201527f526562616c616e6365723a204e6f7420696e2073746167652030000000000000604082015260600190565b6020808252601e908201527f526562616c616e6365723a204f6e6c7920466163746f7279204f776e65720000604082015260600190565b6020808252601f908201527f5265656e7472616e637947756172643a207265656e7472616e742063616c6c00604082015260600190565b815181526020808301516001600160a01b0316908201526040808301516001600160801b0390811691830191909152606092830151169181019190915260800190565b600060a082019050825182526001600160801b03602084015116602083015260408301516040830152606083015160608301526080830151608083015292915050565b81516001600160a01b031681526101608101602083015161552860208401826001600160a01b03169052565b50604083015161553f604084018262ffffff169052565b506060830151615554606084018260020b9052565b506080830151615569608084018260020b9052565b5060a083015160a083015260c083015160c083015260e083015160e0830152610100808401518184015250610120808401516155af828501826001600160a01b03169052565b505061014092830151919092015290565b825481526001808401546001600160801b03166020830152600280850154604084015260038501546060840152600485015480820b820b608085015260181c810b900b60a0830152825460c083015282015460e08201526101008101610630565b6101a0810161180c8284615121565b825181526020808401518183015282516040830152820151606082015260808101610630565b83815282546020820152600183015460408201526102008101614b9b6060830184615121565b83815260208101839052815460408201526001820154606082015260808101614b9b565b8481526020810184905260408101839052815460608201526001820154608082015260a0810161524d565b60008160020b8360020b6000821282627fffff038213811516156156f1576156f16158d3565b82627fffff19038212811615615709576157096158d3565b50019392505050565b60008219821115615725576157256158d3565b500190565b60008160020b8360020b627fffff600082136000841383830485118282161615615756576157566158d3565b627fffff196000851282811687830587121615615775576157756158d3565b60008712925085820587128484161615615791576157916158d3565b858505871281841616156157a7576157a76158d3565b5050509290910295945050505050565b60008160001904831182151516156157d1576157d16158d3565b500290565b60008160020b8360020b6000811281627fffff19018312811516156157fd576157fd6158d3565b81627fffff018313811615615814576158146158d3565b5090039392505050565b600082821015615830576158306158d3565b500390565b60005b83811015615850578181015183820152602001615838565b8381111561277f5750506000910152565b60008160070b677fffffffffffffff81141561587f5761587f6158d3565b60010192915050565b600060001982141561589c5761589c6158d3565b5060010190565b60008260020b806158c457634e487b7160e01b600052601260045260246000fd5b808360020b0791505092915050565b634e487b7160e01b600052601160045260246000fd5b634e487b7160e01b600052603260045260246000fd5b634e487b7160e01b600052604160045260246000fd5b6001600160a01b038116811461592a57600080fd5b50565b801515811461592a57600080fd5b8060020b811461592a57600080fdfea26469706673582212204db436ca5a294928b803708121d36743e273d911e4d708e9c226093a7280f56b64736f6c63430008060033a2646970667358221220bec79ed8841c076a51f6dda3731c0b8c193cb151e0c2ca7fe3b3afe085c4b1f264736f6c63430008060033",
  "devdoc": {
    "kind": "dev",
    "methods": {},
    "version": 1
  },
  "userdoc": {
    "kind": "user",
    "methods": {},
    "version": 1
  },
  "storageLayout": {
    "storage": [
      {
        "astId": 10972,
        "contract": "contracts/rebalance/RebalancerFactory.sol:RebalancerFactory",
        "label": "parameters",
        "offset": 0,
        "slot": "0",
        "type": "t_struct(Parameters)10968_storage"
      },
      {
        "astId": 11083,
        "contract": "contracts/rebalance/RebalancerFactory.sol:RebalancerFactory",
        "label": "uniswapV3Factory",
        "offset": 0,
        "slot": "2",
        "type": "t_contract(IUniswapV3Factory)4311"
      },
      {
        "astId": 11091,
        "contract": "contracts/rebalance/RebalancerFactory.sol:RebalancerFactory",
        "label": "rebalancerFee",
        "offset": 0,
        "slot": "3",
        "type": "t_struct(RebalancerFee)13416_storage"
      },
      {
        "astId": 11096,
        "contract": "contracts/rebalance/RebalancerFactory.sol:RebalancerFactory",
        "label": "getRebalancer",
        "offset": 0,
        "slot": "5",
        "type": "t_mapping(t_address,t_address)"
      },
      {
        "astId": 11100,
        "contract": "contracts/rebalance/RebalancerFactory.sol:RebalancerFactory",
        "label": "getRebalancerV2",
        "offset": 0,
        "slot": "6",
        "type": "t_mapping(t_address,t_address)"
      },
      {
        "astId": 11103,
        "contract": "contracts/rebalance/RebalancerFactory.sol:RebalancerFactory",
        "label": "quoter",
        "offset": 0,
        "slot": "7",
        "type": "t_address"
      },
      {
        "astId": 11107,
        "contract": "contracts/rebalance/RebalancerFactory.sol:RebalancerFactory",
        "label": "summarizationFrequency",
        "offset": 0,
        "slot": "8",
        "type": "t_uint256"
      },
      {
        "astId": 11110,
        "contract": "contracts/rebalance/RebalancerFactory.sol:RebalancerFactory",
        "label": "owner",
        "offset": 0,
        "slot": "9",
        "type": "t_address"
      }
    ],
    "types": {
      "t_address": {
        "encoding": "inplace",
        "label": "address",
        "numberOfBytes": "20"
      },
      "t_contract(IUniswapV3Factory)4311": {
        "encoding": "inplace",
        "label": "contract IUniswapV3Factory",
        "numberOfBytes": "20"
      },
      "t_mapping(t_address,t_address)": {
        "encoding": "mapping",
        "key": "t_address",
        "label": "mapping(address => address)",
        "numberOfBytes": "32",
        "value": "t_address"
      },
      "t_struct(Parameters)10968_storage": {
        "encoding": "inplace",
        "label": "struct RebalancerDeployer.Parameters",
        "members": [
          {
            "astId": 10965,
            "contract": "contracts/rebalance/RebalancerFactory.sol:RebalancerFactory",
            "label": "factory",
            "offset": 0,
            "slot": "0",
            "type": "t_address"
          },
          {
            "astId": 10967,
            "contract": "contracts/rebalance/RebalancerFactory.sol:RebalancerFactory",
            "label": "pool",
            "offset": 0,
            "slot": "1",
            "type": "t_address"
          }
        ],
        "numberOfBytes": "64"
      },
      "t_struct(RebalancerFee)13416_storage": {
        "encoding": "inplace",
        "label": "struct IRebalancerFactory.RebalancerFee",
        "members": [
          {
            "astId": 13413,
            "contract": "contracts/rebalance/RebalancerFactory.sol:RebalancerFactory",
            "label": "numerator",
            "offset": 0,
            "slot": "0",
            "type": "t_uint256"
          },
          {
            "astId": 13415,
            "contract": "contracts/rebalance/RebalancerFactory.sol:RebalancerFactory",
            "label": "denominator",
            "offset": 0,
            "slot": "1",
            "type": "t_uint256"
          }
        ],
        "numberOfBytes": "64"
      },
      "t_uint256": {
        "encoding": "inplace",
        "label": "uint256",
        "numberOfBytes": "32"
      }
    }
  }
}