{
  "address": "0xe7f1725E7734CE288F8367e1Bb143E90bb3F0512",
  "abi": [
    {
      "inputs": [],
      "stateMutability": "nonpayable",
      "type": "constructor"
    },
    {
      "anonymous": false,
      "inputs": [
        {
          "indexed": true,
          "internalType": "bytes32",
          "name": "role",
          "type": "bytes32"
        },
        {
          "indexed": true,
          "internalType": "bytes32",
          "name": "previousAdminRole",
          "type": "bytes32"
        },
        {
          "indexed": true,
          "internalType": "bytes32",
          "name": "newAdminRole",
          "type": "bytes32"
        }
      ],
      "name": "RoleAdminChanged",
      "type": "event"
    },
    {
      "anonymous": false,
      "inputs": [
        {
          "indexed": true,
          "internalType": "bytes32",
          "name": "role",
          "type": "bytes32"
        },
        {
          "indexed": true,
          "internalType": "address",
          "name": "account",
          "type": "address"
        },
        {
          "indexed": true,
          "internalType": "address",
          "name": "sender",
          "type": "address"
        }
      ],
      "name": "RoleGranted",
      "type": "event"
    },
    {
      "anonymous": false,
      "inputs": [
        {
          "indexed": true,
          "internalType": "bytes32",
          "name": "role",
          "type": "bytes32"
        },
        {
          "indexed": true,
          "internalType": "address",
          "name": "account",
          "type": "address"
        },
        {
          "indexed": true,
          "internalType": "address",
          "name": "sender",
          "type": "address"
        }
      ],
      "name": "RoleRevoked",
      "type": "event"
    },
    {
      "inputs": [],
      "name": "ADMIN",
      "outputs": [
        {
          "internalType": "bytes32",
          "name": "",
          "type": "bytes32"
        }
      ],
      "stateMutability": "view",
      "type": "function"
    },
    {
      "inputs": [],
      "name": "BASE_DECIMALS",
      "outputs": [
        {
          "internalType": "uint8",
          "name": "",
          "type": "uint8"
        }
      ],
      "stateMutability": "view",
      "type": "function"
    },
    {
      "inputs": [],
      "name": "BONE",
      "outputs": [
        {
          "internalType": "uint256",
          "name": "",
          "type": "uint256"
        }
      ],
      "stateMutability": "view",
      "type": "function"
    },
    {
      "inputs": [],
      "name": "BPOW_PRECISION",
      "outputs": [
        {
          "internalType": "uint256",
          "name": "",
          "type": "uint256"
        }
      ],
      "stateMutability": "view",
      "type": "function"
    },
    {
      "inputs": [],
      "name": "DEFAULT_ADMIN_ROLE",
      "outputs": [
        {
          "internalType": "bytes32",
          "name": "",
          "type": "bytes32"
        }
      ],
      "stateMutability": "view",
      "type": "function"
    },
    {
      "inputs": [],
      "name": "MAX_BPOW_BASE",
      "outputs": [
        {
          "internalType": "uint256",
          "name": "",
          "type": "uint256"
        }
      ],
      "stateMutability": "view",
      "type": "function"
    },
    {
      "inputs": [],
      "name": "MIN_BPOW_BASE",
      "outputs": [
        {
          "internalType": "uint256",
          "name": "",
          "type": "uint256"
        }
      ],
      "stateMutability": "view",
      "type": "function"
    },
    {
      "inputs": [],
      "name": "WETH",
      "outputs": [
        {
          "internalType": "address",
          "name": "",
          "type": "address"
        }
      ],
      "stateMutability": "view",
      "type": "function"
    },
    {
      "inputs": [
        {
          "internalType": "address",
          "name": "token",
          "type": "address"
        }
      ],
      "name": "getPriceUSD",
      "outputs": [
        {
          "internalType": "uint256",
          "name": "",
          "type": "uint256"
        }
      ],
      "stateMutability": "view",
      "type": "function"
    },
    {
      "inputs": [
        {
          "internalType": "bytes32",
          "name": "role",
          "type": "bytes32"
        }
      ],
      "name": "getRoleAdmin",
      "outputs": [
        {
          "internalType": "bytes32",
          "name": "",
          "type": "bytes32"
        }
      ],
      "stateMutability": "view",
      "type": "function"
    },
    {
      "inputs": [
        {
          "internalType": "bytes32",
          "name": "role",
          "type": "bytes32"
        },
        {
          "internalType": "address",
          "name": "account",
          "type": "address"
        }
      ],
      "name": "grantRole",
      "outputs": [],
      "stateMutability": "nonpayable",
      "type": "function"
    },
    {
      "inputs": [
        {
          "internalType": "bytes32",
          "name": "role",
          "type": "bytes32"
        },
        {
          "internalType": "address",
          "name": "account",
          "type": "address"
        }
      ],
      "name": "hasRole",
      "outputs": [
        {
          "internalType": "bool",
          "name": "",
          "type": "bool"
        }
      ],
      "stateMutability": "view",
      "type": "function"
    },
    {
      "inputs": [
        {
          "internalType": "bytes32",
          "name": "role",
          "type": "bytes32"
        },
        {
          "internalType": "address",
          "name": "account",
          "type": "address"
        }
      ],
      "name": "renounceRole",
      "outputs": [],
      "stateMutability": "nonpayable",
      "type": "function"
    },
    {
      "inputs": [
        {
          "internalType": "bytes32",
          "name": "role",
          "type": "bytes32"
        },
        {
          "internalType": "address",
          "name": "account",
          "type": "address"
        }
      ],
      "name": "revokeRole",
      "outputs": [],
      "stateMutability": "nonpayable",
      "type": "function"
    },
    {
      "inputs": [
        {
          "internalType": "address",
          "name": "token",
          "type": "address"
        },
        {
          "internalType": "address",
          "name": "oracleAddress",
          "type": "address"
        },
        {
          "internalType": "enum LXLinkOracle.OracleType",
          "name": "oracleType",
          "type": "uint8"
        }
      ],
      "name": "setOracleAddress",
      "outputs": [],
      "stateMutability": "nonpayable",
      "type": "function"
    },
    {
      "inputs": [
        {
          "internalType": "bytes4",
          "name": "interfaceId",
          "type": "bytes4"
        }
      ],
      "name": "supportsInterface",
      "outputs": [
        {
          "internalType": "bool",
          "name": "",
          "type": "bool"
        }
      ],
      "stateMutability": "view",
      "type": "function"
    },
    {
      "inputs": [
        {
          "internalType": "address",
          "name": "",
          "type": "address"
        }
      ],
      "name": "tokensETH",
      "outputs": [
        {
          "internalType": "address",
          "name": "",
          "type": "address"
        }
      ],
      "stateMutability": "view",
      "type": "function"
    },
    {
      "inputs": [
        {
          "internalType": "address",
          "name": "",
          "type": "address"
        }
      ],
      "name": "tokensUSD",
      "outputs": [
        {
          "internalType": "address",
          "name": "",
          "type": "address"
        }
      ],
      "stateMutability": "view",
      "type": "function"
    }
  ],
  "transactionHash": "0x2d61788b2bc50c37e1d877c2facd15f010ec7e8f1dd6cc89e98dc2054ff8622e",
  "args": [],
  "solcInputHash": "b6704f1a76e9a1d9c4a3afac985bb4bb",
  "bytecode": "0x608060405234801561001057600080fd5b5061002960008051602061140c83398151915280610126565b61004160008051602061140c8339815191523361017a565b7f158cab4f3f3d7fb3fa7c40cadad4cf2a7d7d1541704c6190fb3782e9411c281780546001600160a01b031990811673f5fff180082d6017036b771ba883025c654bc935179091557f49e349d4f386739afdf8e55db7675b584d46c3b2a603eef62554e21dc437b5db8054821673f79d6afbb6da890132f9d7c355e3015f15f3406f179055732260fac5e5542a773aa44fbcfedf7c193bc2c59960005260026020527f3459054d09ae8631455b798b2b5d106e17bb4e68a39d2d2a935f5f1b7253988b8054909116730133aa47b6197d0ba090bf2cd96626eb71ffd13c179055610226565b600082815260208190526040902060010154819060405184907fbd79b86ffe0ab8e8776151514217cd7cacd52c909f66475c3af44e129f0b00ff90600090a460009182526020829052604090912060010155565b6101848282610188565b5050565b6000828152602081815260408083206001600160a01b038516845290915290205460ff16610184576000828152602081815260408083206001600160a01b03851684529091529020805460ff191660011790556101e23390565b6001600160a01b0316816001600160a01b0316837f2f8788117e7eff1d82e926ec794901d17c78024a50270940304540a733656f0d60405160405180910390a45050565b6111d7806102356000396000f3fe608060405234801561001057600080fd5b50600436106101165760003560e01c80638b09578d116100a2578063ad5c464811610071578063ad5c464814610290578063ba019dab146102ab578063bc694ea2146102b3578063c36596a6146102bb578063d547741f146102ca57600080fd5b80638b09578d1461023257806391d148541461024c5780639d306aa61461025f578063a217fddf1461028857600080fd5b80632a0acc6a116100e95780632a0acc6a146101915780632f2ff15d146101b857806336568abe146101cb5780635708447d146101de57806383871fdb146101f157600080fd5b806301ffc9a71461011b578063057b408514610143578063189d00ca14610158578063248a9ca31461016e575b600080fd5b61012e610129366004610e40565b6102dd565b60405190151581526020015b60405180910390f35b610156610151366004610db0565b610314565b005b6101606103db565b60405190815260200161013a565b61016061017c366004610dfb565b60009081526020819052604090206001015490565b6101607fdf8b4c520ffe197c5343c6f5aec59570151ef9a492f2c624fd45ddde6135ec4281565b6101566101c6366004610e14565b6103f5565b6101566101d9366004610e14565b610420565b6101606101ec366004610d95565b6104a3565b61021a6101ff366004610d95565b6002602052600090815260409020546001600160a01b031681565b6040516001600160a01b03909116815260200161013a565b61023a601281565b60405160ff909116815260200161013a565b61012e61025a366004610e14565b6108ee565b61021a61026d366004610d95565b6001602052600090815260409020546001600160a01b031681565b610160600081565b61021a73c02aaa39b223fe8d0a0e5c4f27ead9083c756cc281565b610160600181565b610160610917565b610160670de0b6b3a764000081565b6101566102d8366004610e14565b610936565b60006001600160e01b03198216637965db0b60e01b148061030e57506301ffc9a760e01b6001600160e01b03198316145b92915050565b7fdf8b4c520ffe197c5343c6f5aec59570151ef9a492f2c624fd45ddde6135ec4261033f813361095c565b60008260018111156103535761035361115f565b141561038c576001600160a01b03848116600090815260016020526040902080546001600160a01b0319169185169190911790556103d5565b60018260018111156103a0576103a061115f565b14156103d5576001600160a01b03848116600090815260026020526040902080546001600160a01b0319169185169190911790555b50505050565b6103f26402540be400670de0b6b3a7640000610f9d565b81565b600082815260208190526040902060010154610411813361095c565b61041b83836109c0565b505050565b6001600160a01b03811633146104955760405162461bcd60e51b815260206004820152602f60248201527f416363657373436f6e74726f6c3a2063616e206f6e6c792072656e6f756e636560448201526e103937b632b9903337b91039b2b63360891b60648201526084015b60405180910390fd5b61049f8282610a44565b5050565b6001600160a01b038181166000908152600160205260408120549091829116156105fb576001600160a01b03808416600090815260016020526040808220548151633fabe5a360e21b815291519293169163feaf968c9160048082019260a092909190829003018186803b15801561051a57600080fd5b505afa15801561052e573d6000803e3d6000fd5b505050506040513d601f19601f820116820180604052508101906105529190610e6a565b5050506001600160a01b03808716600090815260016020908152604080832054815163313ce56760e01b81529151959750929550919092169263313ce56792600480840193919291829003018186803b1580156105ae57600080fd5b505afa1580156105c2573d6000803e3d6000fd5b505050506040513d601f19601f820116820180604052508101906105e69190610eba565b90506105f28183610aa9565b9250505061030e565b6001600160a01b03838116600090815260026020526040902054161561030e576001600160a01b03808416600090815260026020526040808220548151633fabe5a360e21b815291519293169163feaf968c9160048082019260a092909190829003018186803b15801561066e57600080fd5b505afa158015610682573d6000803e3d6000fd5b505050506040513d601f19601f820116820180604052508101906106a69190610e6a565b505073c02aaa39b223fe8d0a0e5c4f27ead9083c756cc2600090815260016020527f49e349d4f386739afdf8e55db7675b584d46c3b2a603eef62554e21dc437b5db5460408051633fabe5a360e21b815290519496509194506001600160a01b03169263feaf968c925060048083019260a0929190829003018186803b15801561072f57600080fd5b505afa158015610743573d6000803e3d6000fd5b505050506040513d601f19601f820116820180604052508101906107679190610e6a565b5050506001600160a01b03808816600090815260026020908152604080832054815163313ce56760e01b81529151959750929550919092169263313ce56792600480840193919291829003018186803b1580156107c357600080fd5b505afa1580156107d7573d6000803e3d6000fd5b505050506040513d601f19601f820116820180604052508101906107fb9190610eba565b73c02aaa39b223fe8d0a0e5c4f27ead9083c756cc26000908152600160209081527f49e349d4f386739afdf8e55db7675b584d46c3b2a603eef62554e21dc437b5db546040805163313ce56760e01b8152905194955092936001600160a01b039091169263313ce567926004808301939192829003018186803b15801561088157600080fd5b505afa158015610895573d6000803e3d6000fd5b505050506040513d601f19601f820116820180604052508101906108b99190610eba565b905060006108c78386610aa9565b905060006108d58386610aa9565b90506108e18282610ad7565b9998505050505050505050565b6000918252602082815260408084206001600160a01b0393909316845291905290205460ff1690565b600161092c670de0b6b3a764000060026110ad565b6103f291906110cc565b600082815260208190526040902060010154610952813361095c565b61041b8383610a44565b61096682826108ee565b61049f5761097e816001600160a01b03166014610bbc565b610989836020610bbc565b60405160200161099a929190610edd565b60408051601f198184030181529082905262461bcd60e51b825261048c91600401610f52565b6109ca82826108ee565b61049f576000828152602081815260408083206001600160a01b03851684529091529020805460ff19166001179055610a003390565b6001600160a01b0316816001600160a01b0316837f2f8788117e7eff1d82e926ec794901d17c78024a50270940304540a733656f0d60405160405180910390a45050565b610a4e82826108ee565b1561049f576000828152602081815260408083206001600160a01b0385168085529252808320805460ff1916905551339285917ff6391f5c32d9c69d2a47ea670b442974b53935d1edc7fd64eb21e047a839171b9190a45050565b600080610ab78460126110e3565b905082610ac582600a611002565b610acf91906110ad565b949350505050565b600080610ae483856110ad565b9050831580610afb575082610af98583610f9d565b145b610b3a5760405162461bcd60e51b815260206004820152601060248201526f4552525f4d554c5f4f564552464c4f5760801b604482015260640161048c565b6000610b4f6002670de0b6b3a7640000610f9d565b610b599083610f85565b905081811015610b9e5760405162461bcd60e51b815260206004820152601060248201526f4552525f4d554c5f4f564552464c4f5760801b604482015260640161048c565b6000610bb2670de0b6b3a764000083610f9d565b9695505050505050565b60606000610bcb8360026110ad565b610bd6906002610f85565b67ffffffffffffffff811115610bee57610bee61118b565b6040519080825280601f01601f191660200182016040528015610c18576020820181803683370190505b509050600360fc1b81600081518110610c3357610c33611175565b60200101906001600160f81b031916908160001a905350600f60fb1b81600181518110610c6257610c62611175565b60200101906001600160f81b031916908160001a9053506000610c868460026110ad565b610c91906001610f85565b90505b6001811115610d09576f181899199a1a9b1b9c1cb0b131b232b360811b85600f1660108110610cc557610cc5611175565b1a60f81b828281518110610cdb57610cdb611175565b60200101906001600160f81b031916908160001a90535060049490941c93610d0281611132565b9050610c94565b508315610d585760405162461bcd60e51b815260206004820181905260248201527f537472696e67733a20686578206c656e67746820696e73756666696369656e74604482015260640161048c565b9392505050565b80356001600160a01b0381168114610d7657600080fd5b919050565b805169ffffffffffffffffffff81168114610d7657600080fd5b600060208284031215610da757600080fd5b610d5882610d5f565b600080600060608486031215610dc557600080fd5b610dce84610d5f565b9250610ddc60208501610d5f565b9150604084013560028110610df057600080fd5b809150509250925092565b600060208284031215610e0d57600080fd5b5035919050565b60008060408385031215610e2757600080fd5b82359150610e3760208401610d5f565b90509250929050565b600060208284031215610e5257600080fd5b81356001600160e01b031981168114610d5857600080fd5b600080600080600060a08688031215610e8257600080fd5b610e8b86610d7b565b9450602086015193506040860151925060608601519150610eae60808701610d7b565b90509295509295909350565b600060208284031215610ecc57600080fd5b815160ff81168114610d5857600080fd5b7f416363657373436f6e74726f6c3a206163636f756e7420000000000000000000815260008351610f15816017850160208801611106565b7001034b99036b4b9b9b4b733903937b6329607d1b6017918401918201528351610f46816028840160208801611106565b01602801949350505050565b6020815260008251806020840152610f71816040850160208701611106565b601f01601f19169190910160400192915050565b60008219821115610f9857610f98611149565b500190565b600082610fba57634e487b7160e01b600052601260045260246000fd5b500490565b600181815b80851115610ffa578160001904821115610fe057610fe0611149565b80851615610fed57918102915b93841c9390800290610fc4565b509250929050565b6000610d5860ff84168360008261101b5750600161030e565b816110285750600061030e565b816001811461103e576002811461104857611064565b600191505061030e565b60ff84111561105957611059611149565b50506001821b61030e565b5060208310610133831016604e8410600b8410161715611087575081810a61030e565b6110918383610fbf565b80600019048211156110a5576110a5611149565b029392505050565b60008160001904831182151516156110c7576110c7611149565b500290565b6000828210156110de576110de611149565b500390565b600060ff821660ff8416808210156110fd576110fd611149565b90039392505050565b60005b83811015611121578181015183820152602001611109565b838111156103d55750506000910152565b60008161114157611141611149565b506000190190565b634e487b7160e01b600052601160045260246000fd5b634e487b7160e01b600052602160045260246000fd5b634e487b7160e01b600052603260045260246000fd5b634e487b7160e01b600052604160045260246000fdfea26469706673582212206d3b29e450db07bc2cb7e8c0cfb7c8883ca6e32d9a2c3a912cb55bcbba5d459f64736f6c63430008060033df8b4c520ffe197c5343c6f5aec59570151ef9a492f2c624fd45ddde6135ec42",
  "devdoc": {
    "details": "Contract to calculate the USD market value of an asset. This call Chainlink (LINK) oracle to calculate the USD market value of a provided asset. Governance has control over this contract.*",
    "kind": "dev",
    "methods": {
      "getPriceUSD(address)": {
        "details": "Gets the USD market value of a given token.",
        "params": {
          "token": "the token to calculate the market value of.*"
        }
      },
      "getRoleAdmin(bytes32)": {
        "details": "Returns the admin role that controls `role`. See {grantRole} and {revokeRole}. To change a role's admin, use {_setRoleAdmin}."
      },
      "grantRole(bytes32,address)": {
        "details": "Grants `role` to `account`. If `account` had not been already granted `role`, emits a {RoleGranted} event. Requirements: - the caller must have ``role``'s admin role."
      },
      "hasRole(bytes32,address)": {
        "details": "Returns `true` if `account` has been granted `role`."
      },
      "renounceRole(bytes32,address)": {
        "details": "Revokes `role` from the calling account. Roles are often managed via {grantRole} and {revokeRole}: this function's purpose is to provide a mechanism for accounts to lose their privileges if they are compromised (such as when a trusted device is misplaced). If the calling account had been granted `role`, emits a {RoleRevoked} event. Requirements: - the caller must be `account`."
      },
      "revokeRole(bytes32,address)": {
        "details": "Revokes `role` from `account`. If `account` had been granted `role`, emits a {RoleRevoked} event. Requirements: - the caller must have ``role``'s admin role."
      },
      "setOracleAddress(address,address,uint8)": {
        "details": "Set oracle address for token",
        "params": {
          "oracleAddress": "the oracle address for token.",
          "oracleType": "type of oracle for token: ORACLE_USD_TYPE or ORACLE_ETH_TYPE.*",
          "token": "the token want to set."
        }
      },
      "supportsInterface(bytes4)": {
        "details": "See {IERC165-supportsInterface}."
      }
    },
    "version": 1
  },
  "userdoc": {
    "kind": "user",
    "methods": {},
    "version": 1
  },
  "storageLayout": {
    "storage": [
      {
        "astId": 108,
        "contract": "contracts/lxAMM/LXLinkOracle.sol:LXLinkOracle",
        "label": "_roles",
        "offset": 0,
        "slot": "0",
        "type": "t_mapping(t_bytes32,t_struct(RoleData)103_storage)"
      },
      {
        "astId": 6770,
        "contract": "contracts/lxAMM/LXLinkOracle.sol:LXLinkOracle",
        "label": "tokensUSD",
        "offset": 0,
        "slot": "1",
        "type": "t_mapping(t_address,t_address)"
      },
      {
        "astId": 6774,
        "contract": "contracts/lxAMM/LXLinkOracle.sol:LXLinkOracle",
        "label": "tokensETH",
        "offset": 0,
        "slot": "2",
        "type": "t_mapping(t_address,t_address)"
      }
    ],
    "types": {
      "t_address": {
        "encoding": "inplace",
        "label": "address",
        "numberOfBytes": "20"
      },
      "t_bool": {
        "encoding": "inplace",
        "label": "bool",
        "numberOfBytes": "1"
      },
      "t_bytes32": {
        "encoding": "inplace",
        "label": "bytes32",
        "numberOfBytes": "32"
      },
      "t_mapping(t_address,t_address)": {
        "encoding": "mapping",
        "key": "t_address",
        "label": "mapping(address => address)",
        "numberOfBytes": "32",
        "value": "t_address"
      },
      "t_mapping(t_address,t_bool)": {
        "encoding": "mapping",
        "key": "t_address",
        "label": "mapping(address => bool)",
        "numberOfBytes": "32",
        "value": "t_bool"
      },
      "t_mapping(t_bytes32,t_struct(RoleData)103_storage)": {
        "encoding": "mapping",
        "key": "t_bytes32",
        "label": "mapping(bytes32 => struct AccessControl.RoleData)",
        "numberOfBytes": "32",
        "value": "t_struct(RoleData)103_storage"
      },
      "t_struct(RoleData)103_storage": {
        "encoding": "inplace",
        "label": "struct AccessControl.RoleData",
        "members": [
          {
            "astId": 100,
            "contract": "contracts/lxAMM/LXLinkOracle.sol:LXLinkOracle",
            "label": "members",
            "offset": 0,
            "slot": "0",
            "type": "t_mapping(t_address,t_bool)"
          },
          {
            "astId": 102,
            "contract": "contracts/lxAMM/LXLinkOracle.sol:LXLinkOracle",
            "label": "adminRole",
            "offset": 0,
            "slot": "1",
            "type": "t_bytes32"
          }
        ],
        "numberOfBytes": "64"
      }
    }
  }
}