{
  "address": "0x5FC8d32690cc91D4c39d9d3abcBD16989F875707",
  "abi": [
    {
      "inputs": [],
      "stateMutability": "nonpayable",
      "type": "constructor"
    },
    {
      "inputs": [
        {
          "internalType": "string",
          "name": "newPurpose",
          "type": "string"
        },
        {
          "internalType": "uint256",
          "name": "age",
          "type": "uint256"
        }
      ],
      "name": "blumbla",
      "outputs": [
        {
          "internalType": "string",
          "name": "",
          "type": "string"
        }
      ],
      "stateMutability": "nonpayable",
      "type": "function"
    },
    {
      "inputs": [],
      "name": "getSomething",
      "outputs": [
        {
          "internalType": "string",
          "name": "",
          "type": "string"
        }
      ],
      "stateMutability": "pure",
      "type": "function"
    },
    {
      "inputs": [],
      "name": "purpose",
      "outputs": [
        {
          "internalType": "string",
          "name": "",
          "type": "string"
        }
      ],
      "stateMutability": "view",
      "type": "function"
    },
    {
      "inputs": [
        {
          "internalType": "string",
          "name": "newPurpose",
          "type": "string"
        }
      ],
      "name": "test",
      "outputs": [],
      "stateMutability": "nonpayable",
      "type": "function"
    }
  ],
  "transactionHash": "0x4a7c52862524180c057907fba0a1cddd83f1daf3b1f50660c393852b099c4a7d",
  "args": [],
  "solcInputHash": "70de75af9f244d29126ad0b89dc397bc",
  "bytecode": "0x60c0604052600960808190526854657374204170707360b81b60a090815261002a916000919061003d565b5034801561003757600080fd5b50610111565b828054610049906100d6565b90600052602060002090601f01602090048101928261006b57600085556100b1565b82601f1061008457805160ff19168380011785556100b1565b828001600101855582156100b1579182015b828111156100b1578251825591602001919060010190610096565b506100bd9291506100c1565b5090565b5b808211156100bd57600081556001016100c2565b600181811c908216806100ea57607f821691505b6020821081141561010b57634e487b7160e01b600052602260045260246000fd5b50919050565b6105c6806101206000396000f3fe608060405234801561001057600080fd5b506004361061004c5760003560e01c806301ec3b6c1461005157806370740aab1461008d57806385a2f7da14610095578063f9fbd554146100a8575b600080fd5b60408051808201909152600e81526d48656c6c6f20576f726c6421212160901b60208201525b6040516100849190610525565b60405180910390f35b6100776100bd565b6100776100a3366004610457565b61014b565b6100bb6100b636600461041c565b610240565b005b600080546100ca9061053f565b80601f01602080910402602001604051908101604052809291908181526020018280546100f69061053f565b80156101435780601f1061011857610100808354040283529160200191610143565b820191906000526020600020905b81548152906001019060200180831161012657829003601f168201915b505050505081565b81516060906101619060009060208601906102fc565b5061021d336040518060400160405280600e81526020016d73657420707572706f736520746f60901b8152506000805461019a9061053f565b80601f01602080910402602001604051908101604052809291908181526020018280546101c69061053f565b80156102135780601f106101e857610100808354040283529160200191610213565b820191906000526020600020905b8154815290600101906020018083116101f657829003601f168201915b505050505061028f565b5060408051808201909152600581526448656c6c6f60d81b602082015292915050565b80516102539060009060208401906102fc565b5061028c336040518060400160405280600e81526020016d73657420707572706f736520746f60901b8152506000805461019a9061053f565b50565b6102d68383836040516024016102a7939291906104e5565b60408051601f198184030181529190526020810180516001600160e01b031663fb77226560e01b1790526102db565b505050565b80516a636f6e736f6c652e6c6f67602083016000808483855afa5050505050565b8280546103089061053f565b90600052602060002090601f01602090048101928261032a5760008555610370565b82601f1061034357805160ff1916838001178555610370565b82800160010185558215610370579182015b82811115610370578251825591602001919060010190610355565b5061037c929150610380565b5090565b5b8082111561037c5760008155600101610381565b600082601f8301126103a5578081fd5b813567ffffffffffffffff808211156103c0576103c061057a565b604051601f8301601f19908116603f011681019082821181831017156103e8576103e861057a565b81604052838152866020858801011115610400578485fd5b8360208701602083013792830160200193909352509392505050565b60006020828403121561042d578081fd5b813567ffffffffffffffff811115610443578182fd5b61044f84828501610395565b949350505050565b60008060408385031215610469578081fd5b823567ffffffffffffffff81111561047f578182fd5b61048b85828601610395565b95602094909401359450505050565b60008151808452815b818110156104bf576020818501810151868301820152016104a3565b818111156104d05782602083870101525b50601f01601f19169290920160200192915050565b6001600160a01b03841681526060602082018190526000906105099083018561049a565b828103604084015261051b818561049a565b9695505050505050565b602081526000610538602083018461049a565b9392505050565b600181811c9082168061055357607f821691505b6020821081141561057457634e487b7160e01b600052602260045260246000fd5b50919050565b634e487b7160e01b600052604160045260246000fdfea26469706673582212201307c12e9b4d15619ceb1f76207765e5ccac599276e3b55287c3ff5bd0fa202964736f6c63430008040033",
  "devdoc": {
    "kind": "dev",
    "methods": {},
    "version": 1
  },
  "userdoc": {
    "kind": "user",
    "methods": {},
    "version": 1
  },
  "storageLayout": {
    "storage": [
      {
        "astId": 35,
        "contract": "contracts/test.sol:Test",
        "label": "purpose",
        "offset": 0,
        "slot": "0",
        "type": "t_string_storage"
      }
    ],
    "types": {
      "t_string_storage": {
        "encoding": "bytes",
        "label": "string",
        "numberOfBytes": "32"
      }
    }
  }
}